{
	"gas_consumer.sol": {
		"BestHashGame": {
			"abi": [
				{
					"inputs": [
						{
							"internalType": "address",
							"name": "_xpToken",
							"type": "address"
						}
					],
					"stateMutability": "nonpayable",
					"type": "constructor"
				},
				{
					"anonymous": false,
					"inputs": [
						{
							"indexed": true,
							"internalType": "address",
							"name": "user",
							"type": "address"
						},
						{
							"indexed": false,
							"internalType": "bytes32",
							"name": "newHash",
							"type": "bytes32"
						}
					],
					"name": "HashUpdated",
					"type": "event"
				},
				{
					"anonymous": false,
					"inputs": [
						{
							"indexed": false,
							"internalType": "address",
							"name": "winner",
							"type": "address"
						},
						{
							"indexed": false,
							"internalType": "bytes32",
							"name": "winningHash",
							"type": "bytes32"
						},
						{
							"indexed": false,
							"internalType": "uint256",
							"name": "xpReward",
							"type": "uint256"
						}
					],
					"name": "RoundFinished",
					"type": "event"
				},
				{
					"inputs": [],
					"name": "bestHash",
					"outputs": [
						{
							"internalType": "bytes32",
							"name": "",
							"type": "bytes32"
						}
					],
					"stateMutability": "view",
					"type": "function"
				},
				{
					"inputs": [
						{
							"internalType": "address",
							"name": "",
							"type": "address"
						}
					],
					"name": "bestHashes",
					"outputs": [
						{
							"internalType": "bytes32",
							"name": "",
							"type": "bytes32"
						}
					],
					"stateMutability": "view",
					"type": "function"
				},
				{
					"inputs": [],
					"name": "bestUser",
					"outputs": [
						{
							"internalType": "address",
							"name": "",
							"type": "address"
						}
					],
					"stateMutability": "view",
					"type": "function"
				},
				{
					"inputs": [
						{
							"internalType": "bytes32",
							"name": "hash",
							"type": "bytes32"
						}
					],
					"name": "countLeadingZeros",
					"outputs": [
						{
							"internalType": "uint256",
							"name": "",
							"type": "uint256"
						}
					],
					"stateMutability": "pure",
					"type": "function"
				},
				{
					"inputs": [],
					"name": "emergencyWithdrawXP",
					"outputs": [],
					"stateMutability": "nonpayable",
					"type": "function"
				},
				{
					"inputs": [],
					"name": "feed_mammoth",
					"outputs": [],
					"stateMutability": "nonpayable",
					"type": "function"
				},
				{
					"inputs": [],
					"name": "finish_round",
					"outputs": [],
					"stateMutability": "nonpayable",
					"type": "function"
				},
				{
					"inputs": [],
					"name": "owner",
					"outputs": [
						{
							"internalType": "address",
							"name": "",
							"type": "address"
						}
					],
					"stateMutability": "view",
					"type": "function"
				},
				{
					"inputs": [
						{
							"internalType": "address",
							"name": "_newXPToken",
							"type": "address"
						}
					],
					"name": "setXPToken",
					"outputs": [],
					"stateMutability": "nonpayable",
					"type": "function"
				},
				{
					"inputs": [],
					"name": "xpToken",
					"outputs": [
						{
							"internalType": "contract IERC20",
							"name": "",
							"type": "address"
						}
					],
					"stateMutability": "view",
					"type": "function"
				}
			],
			"devdoc": {
				"kind": "dev",
				"methods": {},
				"version": 1
			},
			"evm": {
				"assembly": "    /* \"gas_consumer.sol\":257:3336  contract BestHashGame {... */\n  mstore(0x40, 0x80)\n    /* \"gas_consumer.sol\":425:442  type(uint256).max */\n  0xffffffffffffffffffffffffffffffffffffffffffffffffffffffffffffffff\n    /* \"gas_consumer.sol\":417:443  bytes32(type(uint256).max) */\n  0x00\n  shl\n    /* \"gas_consumer.sol\":391:443  bytes32 public bestHash = bytes32(type(uint256).max) */\n  0x03\n  sstore\n    /* \"gas_consumer.sol\":777:878  constructor(address _xpToken) {... */\n  callvalue\n  dup1\n  iszero\n  tag_1\n  jumpi\n  0x00\n  dup1\n  revert\ntag_1:\n  pop\n  mload(0x40)\n  sub(codesize, bytecodeSize)\n  dup1\n  bytecodeSize\n  dup4\n  codecopy\n  dup2\n  dup2\n  add\n  0x40\n  mstore\n  dup2\n  add\n  swap1\n  tag_2\n  swap2\n  swap1\n  tag_3\n  jump\t// in\ntag_2:\n    /* \"gas_consumer.sol\":825:835  msg.sender */\n  caller\n    /* \"gas_consumer.sol\":817:822  owner */\n  0x00\n  dup1\n    /* \"gas_consumer.sol\":817:835  owner = msg.sender */\n  0x0100\n  exp\n  dup2\n  sload\n  dup2\n  0xffffffffffffffffffffffffffffffffffffffff\n  mul\n  not\n  and\n  swap1\n  dup4\n  0xffffffffffffffffffffffffffffffffffffffff\n  and\n  mul\n  or\n  swap1\n  sstore\n  pop\n    /* \"gas_consumer.sol\":862:870  _xpToken */\n  dup1\n    /* \"gas_consumer.sol\":845:852  xpToken */\n  0x04\n  0x00\n    /* \"gas_consumer.sol\":845:871  xpToken = IERC20(_xpToken) */\n  0x0100\n  exp\n  dup2\n  sload\n  dup2\n  0xffffffffffffffffffffffffffffffffffffffff\n  mul\n  not\n  and\n  swap1\n  dup4\n  0xffffffffffffffffffffffffffffffffffffffff\n  and\n  mul\n  or\n  swap1\n  sstore\n  pop\n    /* \"gas_consumer.sol\":777:878  constructor(address _xpToken) {... */\n  pop\n    /* \"gas_consumer.sol\":257:3336  contract BestHashGame {... */\n  jump(tag_6)\n    /* \"#utility.yul\":88:205   */\ntag_8:\n    /* \"#utility.yul\":197:198   */\n  0x00\n    /* \"#utility.yul\":194:195   */\n  dup1\n    /* \"#utility.yul\":187:199   */\n  revert\n    /* \"#utility.yul\":334:460   */\ntag_10:\n    /* \"#utility.yul\":371:378   */\n  0x00\n    /* \"#utility.yul\":411:453   */\n  0xffffffffffffffffffffffffffffffffffffffff\n    /* \"#utility.yul\":404:409   */\n  dup3\n    /* \"#utility.yul\":400:454   */\n  and\n    /* \"#utility.yul\":389:454   */\n  swap1\n  pop\n    /* \"#utility.yul\":334:460   */\n  swap2\n  swap1\n  pop\n  jump\t// out\n    /* \"#utility.yul\":466:562   */\ntag_11:\n    /* \"#utility.yul\":503:510   */\n  0x00\n    /* \"#utility.yul\":532:556   */\n  tag_20\n    /* \"#utility.yul\":550:555   */\n  dup3\n    /* \"#utility.yul\":532:556   */\n  tag_10\n  jump\t// in\ntag_20:\n    /* \"#utility.yul\":521:556   */\n  swap1\n  pop\n    /* \"#utility.yul\":466:562   */\n  swap2\n  swap1\n  pop\n  jump\t// out\n    /* \"#utility.yul\":568:690   */\ntag_12:\n    /* \"#utility.yul\":641:665   */\n  tag_22\n    /* \"#utility.yul\":659:664   */\n  dup2\n    /* \"#utility.yul\":641:665   */\n  tag_11\n  jump\t// in\ntag_22:\n    /* \"#utility.yul\":634:639   */\n  dup2\n    /* \"#utility.yul\":631:666   */\n  eq\n    /* \"#utility.yul\":621:684   */\n  tag_23\n  jumpi\n    /* \"#utility.yul\":680:681   */\n  0x00\n    /* \"#utility.yul\":677:678   */\n  dup1\n    /* \"#utility.yul\":670:682   */\n  revert\n    /* \"#utility.yul\":621:684   */\ntag_23:\n    /* \"#utility.yul\":568:690   */\n  pop\n  jump\t// out\n    /* \"#utility.yul\":696:839   */\ntag_13:\n    /* \"#utility.yul\":753:758   */\n  0x00\n    /* \"#utility.yul\":784:790   */\n  dup2\n    /* \"#utility.yul\":778:791   */\n  mload\n    /* \"#utility.yul\":769:791   */\n  swap1\n  pop\n    /* \"#utility.yul\":800:833   */\n  tag_25\n    /* \"#utility.yul\":827:832   */\n  dup2\n    /* \"#utility.yul\":800:833   */\n  tag_12\n  jump\t// in\ntag_25:\n    /* \"#utility.yul\":696:839   */\n  swap3\n  swap2\n  pop\n  pop\n  jump\t// out\n    /* \"#utility.yul\":845:1196   */\ntag_3:\n    /* \"#utility.yul\":915:921   */\n  0x00\n    /* \"#utility.yul\":964:966   */\n  0x20\n    /* \"#utility.yul\":952:961   */\n  dup3\n    /* \"#utility.yul\":943:950   */\n  dup5\n    /* \"#utility.yul\":939:962   */\n  sub\n    /* \"#utility.yul\":935:967   */\n  slt\n    /* \"#utility.yul\":932:1051   */\n  iszero\n  tag_27\n  jumpi\n    /* \"#utility.yul\":970:1049   */\n  tag_28\n  tag_8\n  jump\t// in\ntag_28:\n    /* \"#utility.yul\":932:1051   */\ntag_27:\n    /* \"#utility.yul\":1090:1091   */\n  0x00\n    /* \"#utility.yul\":1115:1179   */\n  tag_29\n    /* \"#utility.yul\":1171:1178   */\n  dup5\n    /* \"#utility.yul\":1162:1168   */\n  dup3\n    /* \"#utility.yul\":1151:1160   */\n  dup6\n    /* \"#utility.yul\":1147:1169   */\n  add\n    /* \"#utility.yul\":1115:1179   */\n  tag_13\n  jump\t// in\ntag_29:\n    /* \"#utility.yul\":1105:1179   */\n  swap2\n  pop\n    /* \"#utility.yul\":1061:1189   */\n  pop\n    /* \"#utility.yul\":845:1196   */\n  swap3\n  swap2\n  pop\n  pop\n  jump\t// out\n    /* \"gas_consumer.sol\":257:3336  contract BestHashGame {... */\ntag_6:\n  dataSize(sub_0)\n  dup1\n  dataOffset(sub_0)\n  0x00\n  codecopy\n  0x00\n  return\nstop\n\nsub_0: assembly {\n        /* \"gas_consumer.sol\":257:3336  contract BestHashGame {... */\n      mstore(0x40, 0x80)\n      callvalue\n      dup1\n      iszero\n      tag_1\n      jumpi\n      0x00\n      dup1\n      revert\n    tag_1:\n      pop\n      jumpi(tag_2, lt(calldatasize, 0x04))\n      shr(0xe0, calldataload(0x00))\n      dup1\n      0x8da5cb5b\n      gt\n      tag_13\n      jumpi\n      dup1\n      0x8da5cb5b\n      eq\n      tag_8\n      jumpi\n      dup1\n      0x92d14ea0\n      eq\n      tag_9\n      jumpi\n      dup1\n      0xae5014b1\n      eq\n      tag_10\n      jumpi\n      dup1\n      0xbbd425df\n      eq\n      tag_11\n      jumpi\n      dup1\n      0xf6b36551\n      eq\n      tag_12\n      jumpi\n      jump(tag_2)\n    tag_13:\n      dup1\n      0x49a556\n      eq\n      tag_3\n      jumpi\n      dup1\n      0x03feb273\n      eq\n      tag_4\n      jumpi\n      dup1\n      0x0fe5a9f7\n      eq\n      tag_5\n      jumpi\n      dup1\n      0x1b7ef263\n      eq\n      tag_6\n      jumpi\n      dup1\n      0x598378f5\n      eq\n      tag_7\n      jumpi\n    tag_2:\n      0x00\n      dup1\n      revert\n        /* \"gas_consumer.sol\":884:1212  function countLeadingZeros(bytes32 hash) public pure returns (uint256) {... */\n    tag_3:\n      tag_14\n      0x04\n      dup1\n      calldatasize\n      sub\n      dup2\n      add\n      swap1\n      tag_15\n      swap2\n      swap1\n      tag_16\n      jump\t// in\n    tag_15:\n      tag_17\n      jump\t// in\n    tag_14:\n      mload(0x40)\n      tag_18\n      swap2\n      swap1\n      tag_19\n      jump\t// in\n    tag_18:\n      mload(0x40)\n      dup1\n      swap2\n      sub\n      swap1\n      return\n        /* \"gas_consumer.sol\":1764:2899  function finish_round() external onlyOwner {... */\n    tag_4:\n      tag_20\n      tag_21\n      jump\t// in\n    tag_20:\n      stop\n        /* \"gas_consumer.sol\":1218:1758  function feed_mammoth() external {... */\n    tag_5:\n      tag_22\n      tag_23\n      jump\t// in\n    tag_22:\n      stop\n        /* \"gas_consumer.sol\":311:356  mapping(address => bytes32) public bestHashes */\n    tag_6:\n      tag_24\n      0x04\n      dup1\n      calldatasize\n      sub\n      dup2\n      add\n      swap1\n      tag_25\n      swap2\n      swap1\n      tag_26\n      jump\t// in\n    tag_25:\n      tag_27\n      jump\t// in\n    tag_24:\n      mload(0x40)\n      tag_28\n      swap2\n      swap1\n      tag_29\n      jump\t// in\n    tag_28:\n      mload(0x40)\n      dup1\n      swap2\n      sub\n      swap1\n      return\n        /* \"gas_consumer.sol\":2905:3153  function emergencyWithdrawXP() external onlyOwner {... */\n    tag_7:\n      tag_30\n      tag_31\n      jump\t// in\n    tag_30:\n      stop\n        /* \"gas_consumer.sol\":285:305  address public owner */\n    tag_8:\n      tag_32\n      tag_33\n      jump\t// in\n    tag_32:\n      mload(0x40)\n      tag_34\n      swap2\n      swap1\n      tag_35\n      jump\t// in\n    tag_34:\n      mload(0x40)\n      dup1\n      swap2\n      sub\n      swap1\n      return\n        /* \"gas_consumer.sol\":3159:3334  function setXPToken(address _newXPToken) external onlyOwner {... */\n    tag_9:\n      tag_36\n      0x04\n      dup1\n      calldatasize\n      sub\n      dup2\n      add\n      swap1\n      tag_37\n      swap2\n      swap1\n      tag_26\n      jump\t// in\n    tag_37:\n      tag_38\n      jump\t// in\n    tag_36:\n      stop\n        /* \"gas_consumer.sol\":486:507  IERC20 public xpToken */\n    tag_10:\n      tag_39\n      tag_40\n      jump\t// in\n    tag_39:\n      mload(0x40)\n      tag_41\n      swap2\n      swap1\n      tag_42\n      jump\t// in\n    tag_41:\n      mload(0x40)\n      dup1\n      swap2\n      sub\n      swap1\n      return\n        /* \"gas_consumer.sol\":362:385  address public bestUser */\n    tag_11:\n      tag_43\n      tag_44\n      jump\t// in\n    tag_43:\n      mload(0x40)\n      tag_45\n      swap2\n      swap1\n      tag_35\n      jump\t// in\n    tag_45:\n      mload(0x40)\n      dup1\n      swap2\n      sub\n      swap1\n      return\n        /* \"gas_consumer.sol\":391:443  bytes32 public bestHash = bytes32(type(uint256).max) */\n    tag_12:\n      tag_46\n      tag_47\n      jump\t// in\n    tag_46:\n      mload(0x40)\n      tag_48\n      swap2\n      swap1\n      tag_29\n      jump\t// in\n    tag_48:\n      mload(0x40)\n      dup1\n      swap2\n      sub\n      swap1\n      return\n        /* \"gas_consumer.sol\":884:1212  function countLeadingZeros(bytes32 hash) public pure returns (uint256) {... */\n    tag_17:\n        /* \"gas_consumer.sol\":946:953  uint256 */\n      0x00\n        /* \"gas_consumer.sol\":965:978  uint256 value */\n      dup1\n        /* \"gas_consumer.sol\":989:993  hash */\n      dup3\n        /* \"gas_consumer.sol\":981:994  uint256(hash) */\n      0x00\n      shr\n        /* \"gas_consumer.sol\":965:994  uint256 value = uint256(hash) */\n      swap1\n      pop\n        /* \"gas_consumer.sol\":1004:1017  uint256 zeros */\n      0x00\n        /* \"gas_consumer.sol\":1037:1046  uint256 i */\n      dup1\n        /* \"gas_consumer.sol\":1049:1052  255 */\n      0xff\n        /* \"gas_consumer.sol\":1037:1052  uint256 i = 255 */\n      swap1\n      pop\n        /* \"gas_consumer.sol\":1032:1179  for (uint256 i = 255; i >= 0; i--) {... */\n    tag_50:\n        /* \"gas_consumer.sol\":1059:1060  0 */\n      0x00\n        /* \"gas_consumer.sol\":1054:1055  i */\n      dup2\n        /* \"gas_consumer.sol\":1054:1060  i >= 0 */\n      lt\n        /* \"gas_consumer.sol\":1032:1179  for (uint256 i = 255; i >= 0; i--) {... */\n      tag_51\n      jumpi\n        /* \"gas_consumer.sol\":1107:1108  0 */\n      0x00\n        /* \"gas_consumer.sol\":1100:1101  i */\n      dup2\n        /* \"gas_consumer.sol\":1095:1096  1 */\n      0x01\n        /* \"gas_consumer.sol\":1095:1101  1 << i */\n      swap1\n      shl\n        /* \"gas_consumer.sol\":1086:1091  value */\n      dup5\n        /* \"gas_consumer.sol\":1086:1102  value & (1 << i) */\n      and\n        /* \"gas_consumer.sol\":1085:1108  (value & (1 << i)) != 0 */\n      sub\n        /* \"gas_consumer.sol\":1128:1133  break */\n      tag_51\n        /* \"gas_consumer.sol\":1081:1148  if ((value & (1 << i)) != 0) {... */\n      jumpi\n        /* \"gas_consumer.sol\":1161:1168  zeros++ */\n      dup2\n      dup1\n      tag_54\n      swap1\n      tag_55\n      jump\t// in\n    tag_54:\n      swap3\n      pop\n      pop\n        /* \"gas_consumer.sol\":1062:1065  i-- */\n      dup1\n      dup1\n      tag_56\n      swap1\n      tag_57\n      jump\t// in\n    tag_56:\n      swap2\n      pop\n      pop\n        /* \"gas_consumer.sol\":1032:1179  for (uint256 i = 255; i >= 0; i--) {... */\n      jump(tag_50)\n    tag_51:\n      pop\n        /* \"gas_consumer.sol\":1204:1205  4 */\n      0x04\n        /* \"gas_consumer.sol\":1196:1201  zeros */\n      dup2\n        /* \"gas_consumer.sol\":1196:1205  zeros / 4 */\n      tag_58\n      swap2\n      swap1\n      tag_59\n      jump\t// in\n    tag_58:\n        /* \"gas_consumer.sol\":1189:1205  return zeros / 4 */\n      swap3\n      pop\n      pop\n      pop\n        /* \"gas_consumer.sol\":884:1212  function countLeadingZeros(bytes32 hash) public pure returns (uint256) {... */\n      swap2\n      swap1\n      pop\n      jump\t// out\n        /* \"gas_consumer.sol\":1764:2899  function finish_round() external onlyOwner {... */\n    tag_21:\n        /* \"gas_consumer.sol\":710:715  owner */\n      0x00\n      dup1\n      sload\n      swap1\n      0x0100\n      exp\n      swap1\n      div\n      0xffffffffffffffffffffffffffffffffffffffff\n      and\n        /* \"gas_consumer.sol\":696:715  msg.sender == owner */\n      0xffffffffffffffffffffffffffffffffffffffff\n      and\n        /* \"gas_consumer.sol\":696:706  msg.sender */\n      caller\n        /* \"gas_consumer.sol\":696:715  msg.sender == owner */\n      0xffffffffffffffffffffffffffffffffffffffff\n      and\n      eq\n        /* \"gas_consumer.sol\":688:753  require(msg.sender == owner, \"Only owner can call this function\") */\n      tag_61\n      jumpi\n      mload(0x40)\n      0x08c379a000000000000000000000000000000000000000000000000000000000\n      dup2\n      mstore\n      0x04\n      add\n      tag_62\n      swap1\n      tag_63\n      jump\t// in\n    tag_62:\n      mload(0x40)\n      dup1\n      swap2\n      sub\n      swap1\n      revert\n    tag_61:\n        /* \"gas_consumer.sol\":1845:1846  0 */\n      0x00\n        /* \"gas_consumer.sol\":1825:1847  bestUser != address(0) */\n      0xffffffffffffffffffffffffffffffffffffffff\n      and\n        /* \"gas_consumer.sol\":1825:1833  bestUser */\n      0x02\n      0x00\n      swap1\n      sload\n      swap1\n      0x0100\n      exp\n      swap1\n      div\n      0xffffffffffffffffffffffffffffffffffffffff\n      and\n        /* \"gas_consumer.sol\":1825:1847  bestUser != address(0) */\n      0xffffffffffffffffffffffffffffffffffffffff\n      and\n      sub\n        /* \"gas_consumer.sol\":1817:1873  require(bestUser != address(0), \"No valid winner found\") */\n      tag_65\n      jumpi\n      mload(0x40)\n      0x08c379a000000000000000000000000000000000000000000000000000000000\n      dup2\n      mstore\n      0x04\n      add\n      tag_66\n      swap1\n      tag_67\n      jump\t// in\n    tag_66:\n      mload(0x40)\n      dup1\n      swap2\n      sub\n      swap1\n      revert\n    tag_65:\n        /* \"gas_consumer.sol\":1884:1903  address winningUser */\n      0x00\n        /* \"gas_consumer.sol\":1906:1914  bestUser */\n      0x02\n      0x00\n      swap1\n      sload\n      swap1\n      0x0100\n      exp\n      swap1\n      div\n      0xffffffffffffffffffffffffffffffffffffffff\n      and\n        /* \"gas_consumer.sol\":1884:1914  address winningUser = bestUser */\n      swap1\n      pop\n        /* \"gas_consumer.sol\":1924:1943  bytes32 winningHash */\n      0x00\n        /* \"gas_consumer.sol\":1946:1954  bestHash */\n      sload(0x03)\n        /* \"gas_consumer.sol\":1924:1954  bytes32 winningHash = bestHash */\n      swap1\n      pop\n        /* \"gas_consumer.sol\":2019:2039  uint256 leadingZeros */\n      0x00\n        /* \"gas_consumer.sol\":2042:2072  countLeadingZeros(winningHash) */\n      tag_68\n        /* \"gas_consumer.sol\":2060:2071  winningHash */\n      dup3\n        /* \"gas_consumer.sol\":2042:2059  countLeadingZeros */\n      tag_17\n        /* \"gas_consumer.sol\":2042:2072  countLeadingZeros(winningHash) */\n      jump\t// in\n    tag_68:\n        /* \"gas_consumer.sol\":2019:2072  uint256 leadingZeros = countLeadingZeros(winningHash) */\n      swap1\n      pop\n        /* \"gas_consumer.sol\":2082:2098  uint256 xpReward */\n      0x00\n        /* \"gas_consumer.sol\":2123:2125  18 */\n      0x12\n        /* \"gas_consumer.sol\":2108:2120  leadingZeros */\n      dup3\n        /* \"gas_consumer.sol\":2108:2125  leadingZeros + 18 */\n      tag_69\n      swap2\n      swap1\n      tag_70\n      jump\t// in\n    tag_69:\n        /* \"gas_consumer.sol\":2101:2103  10 */\n      0x0a\n        /* \"gas_consumer.sol\":2101:2126  10 ** (leadingZeros + 18) */\n      tag_71\n      swap2\n      swap1\n      tag_72\n      jump\t// in\n    tag_71:\n        /* \"gas_consumer.sol\":2082:2126  uint256 xpReward = 10 ** (leadingZeros + 18) */\n      swap1\n      pop\n        /* \"gas_consumer.sol\":2187:2210  uint256 contractBalance */\n      0x00\n        /* \"gas_consumer.sol\":2213:2220  xpToken */\n      0x04\n      0x00\n      swap1\n      sload\n      swap1\n      0x0100\n      exp\n      swap1\n      div\n      0xffffffffffffffffffffffffffffffffffffffff\n      and\n        /* \"gas_consumer.sol\":2213:2230  xpToken.balanceOf */\n      0xffffffffffffffffffffffffffffffffffffffff\n      and\n      0x70a08231\n        /* \"gas_consumer.sol\":2239:2243  this */\n      address\n        /* \"gas_consumer.sol\":2213:2245  xpToken.balanceOf(address(this)) */\n      mload(0x40)\n      dup3\n      0xffffffff\n      and\n      0xe0\n      shl\n      dup2\n      mstore\n      0x04\n      add\n      tag_73\n      swap2\n      swap1\n      tag_35\n      jump\t// in\n    tag_73:\n      0x20\n      mload(0x40)\n      dup1\n      dup4\n      sub\n      dup2\n      dup7\n      gas\n      staticcall\n      iszero\n      dup1\n      iszero\n      tag_75\n      jumpi\n      returndatasize\n      0x00\n      dup1\n      returndatacopy\n      revert(0x00, returndatasize)\n    tag_75:\n      pop\n      pop\n      pop\n      pop\n      mload(0x40)\n      returndatasize\n      not(0x1f)\n      0x1f\n      dup3\n      add\n      and\n      dup3\n      add\n      dup1\n      0x40\n      mstore\n      pop\n      dup2\n      add\n      swap1\n      tag_76\n      swap2\n      swap1\n      tag_77\n      jump\t// in\n    tag_76:\n        /* \"gas_consumer.sol\":2187:2245  uint256 contractBalance = xpToken.balanceOf(address(this)) */\n      swap1\n      pop\n        /* \"gas_consumer.sol\":2277:2292  contractBalance */\n      dup1\n        /* \"gas_consumer.sol\":2266:2274  xpReward */\n      dup3\n        /* \"gas_consumer.sol\":2266:2292  xpReward > contractBalance */\n      gt\n        /* \"gas_consumer.sol\":2266:2321  xpReward > contractBalance ? contractBalance : xpReward */\n      tag_78\n      jumpi\n        /* \"gas_consumer.sol\":2313:2321  xpReward */\n      dup2\n        /* \"gas_consumer.sol\":2266:2321  xpReward > contractBalance ? contractBalance : xpReward */\n      jump(tag_79)\n    tag_78:\n        /* \"gas_consumer.sol\":2295:2310  contractBalance */\n      dup1\n        /* \"gas_consumer.sol\":2266:2321  xpReward > contractBalance ? contractBalance : xpReward */\n    tag_79:\n        /* \"gas_consumer.sol\":2255:2321  xpReward = xpReward > contractBalance ? contractBalance : xpReward */\n      swap2\n      pop\n        /* \"gas_consumer.sol\":2347:2348  0 */\n      0x00\n        /* \"gas_consumer.sol\":2336:2344  xpReward */\n      dup3\n        /* \"gas_consumer.sol\":2336:2348  xpReward > 0 */\n      gt\n        /* \"gas_consumer.sol\":2336:2379  xpReward > 0 && contractBalance >= xpReward */\n      dup1\n      iszero\n      tag_80\n      jumpi\n      pop\n        /* \"gas_consumer.sol\":2371:2379  xpReward */\n      dup2\n        /* \"gas_consumer.sol\":2352:2367  contractBalance */\n      dup2\n        /* \"gas_consumer.sol\":2352:2379  contractBalance >= xpReward */\n      lt\n      iszero\n        /* \"gas_consumer.sol\":2336:2379  xpReward > 0 && contractBalance >= xpReward */\n    tag_80:\n        /* \"gas_consumer.sol\":2332:2476  if (xpReward > 0 && contractBalance >= xpReward) {... */\n      iszero\n      tag_81\n      jumpi\n        /* \"gas_consumer.sol\":2403:2410  xpToken */\n      0x04\n      0x00\n      swap1\n      sload\n      swap1\n      0x0100\n      exp\n      swap1\n      div\n      0xffffffffffffffffffffffffffffffffffffffff\n      and\n        /* \"gas_consumer.sol\":2403:2419  xpToken.transfer */\n      0xffffffffffffffffffffffffffffffffffffffff\n      and\n      0xa9059cbb\n        /* \"gas_consumer.sol\":2420:2431  winningUser */\n      dup7\n        /* \"gas_consumer.sol\":2433:2441  xpReward */\n      dup5\n        /* \"gas_consumer.sol\":2403:2442  xpToken.transfer(winningUser, xpReward) */\n      mload(0x40)\n      dup4\n      0xffffffff\n      and\n      0xe0\n      shl\n      dup2\n      mstore\n      0x04\n      add\n      tag_82\n      swap3\n      swap2\n      swap1\n      tag_83\n      jump\t// in\n    tag_82:\n      0x20\n      mload(0x40)\n      dup1\n      dup4\n      sub\n      dup2\n      0x00\n      dup8\n      gas\n      call\n      iszero\n      dup1\n      iszero\n      tag_85\n      jumpi\n      returndatasize\n      0x00\n      dup1\n      returndatacopy\n      revert(0x00, returndatasize)\n    tag_85:\n      pop\n      pop\n      pop\n      pop\n      mload(0x40)\n      returndatasize\n      not(0x1f)\n      0x1f\n      dup3\n      add\n      and\n      dup3\n      add\n      dup1\n      0x40\n      mstore\n      pop\n      dup2\n      add\n      swap1\n      tag_86\n      swap2\n      swap1\n      tag_87\n      jump\t// in\n    tag_86:\n        /* \"gas_consumer.sol\":2395:2465  require(xpToken.transfer(winningUser, xpReward), \"XP transfer failed\") */\n      tag_88\n      jumpi\n      mload(0x40)\n      0x08c379a000000000000000000000000000000000000000000000000000000000\n      dup2\n      mstore\n      0x04\n      add\n      tag_89\n      swap1\n      tag_90\n      jump\t// in\n    tag_89:\n      mload(0x40)\n      dup1\n      swap2\n      sub\n      swap1\n      revert\n    tag_88:\n        /* \"gas_consumer.sol\":2332:2476  if (xpReward > 0 && contractBalance >= xpReward) {... */\n    tag_81:\n        /* \"gas_consumer.sol\":2491:2540  RoundFinished(winningUser, winningHash, xpReward) */\n      0x7adaf486fba2a50d6d287e224bef3941aa341ef4e72c70467a72a9f61e8d8606\n        /* \"gas_consumer.sol\":2505:2516  winningUser */\n      dup6\n        /* \"gas_consumer.sol\":2518:2529  winningHash */\n      dup6\n        /* \"gas_consumer.sol\":2531:2539  xpReward */\n      dup5\n        /* \"gas_consumer.sol\":2491:2540  RoundFinished(winningUser, winningHash, xpReward) */\n      mload(0x40)\n      tag_91\n      swap4\n      swap3\n      swap2\n      swap1\n      tag_92\n      jump\t// in\n    tag_91:\n      mload(0x40)\n      dup1\n      swap2\n      sub\n      swap1\n      log1\n        /* \"gas_consumer.sol\":2602:2619  type(uint256).max */\n      0xffffffffffffffffffffffffffffffffffffffffffffffffffffffffffffffff\n        /* \"gas_consumer.sol\":2594:2620  bytes32(type(uint256).max) */\n      0x00\n      shl\n        /* \"gas_consumer.sol\":2583:2591  bestHash */\n      0x03\n        /* \"gas_consumer.sol\":2583:2620  bestHash = bytes32(type(uint256).max) */\n      dup2\n      swap1\n      sstore\n      pop\n        /* \"gas_consumer.sol\":2649:2650  0 */\n      0x00\n        /* \"gas_consumer.sol\":2630:2638  bestUser */\n      0x02\n      0x00\n        /* \"gas_consumer.sol\":2630:2651  bestUser = address(0) */\n      0x0100\n      exp\n      dup2\n      sload\n      dup2\n      0xffffffffffffffffffffffffffffffffffffffff\n      mul\n      not\n      and\n      swap1\n      dup4\n      0xffffffffffffffffffffffffffffffffffffffff\n      and\n      mul\n      or\n      swap1\n      sstore\n      pop\n        /* \"gas_consumer.sol\":2698:2707  uint256 i */\n      0x00\n        /* \"gas_consumer.sol\":2693:2893  for (uint256 i = 0; i < 256; i++) {... */\n    tag_93:\n        /* \"gas_consumer.sol\":2717:2720  256 */\n      0x0100\n        /* \"gas_consumer.sol\":2713:2714  i */\n      dup2\n        /* \"gas_consumer.sol\":2713:2720  i < 256 */\n      lt\n        /* \"gas_consumer.sol\":2693:2893  for (uint256 i = 0; i < 256; i++) {... */\n      iszero\n      tag_94\n      jumpi\n        /* \"gas_consumer.sol\":2741:2762  address potentialUser */\n      0x00\n        /* \"gas_consumer.sol\":2826:2827  8 */\n      0x08\n        /* \"gas_consumer.sol\":2822:2823  i */\n      dup3\n        /* \"gas_consumer.sol\":2822:2827  i * 8 */\n      tag_96\n      swap2\n      swap1\n      tag_97\n      jump\t// in\n    tag_96:\n        /* \"gas_consumer.sol\":2814:2815  1 */\n      0x01\n        /* \"gas_consumer.sol\":2799:2811  block.number */\n      number\n        /* \"gas_consumer.sol\":2799:2815  block.number - 1 */\n      tag_98\n      swap2\n      swap1\n      tag_99\n      jump\t// in\n    tag_98:\n        /* \"gas_consumer.sol\":2789:2816  blockhash(block.number - 1) */\n      blockhash\n        /* \"gas_consumer.sol\":2781:2817  uint256(blockhash(block.number - 1)) */\n      0x00\n      shr\n        /* \"gas_consumer.sol\":2781:2828  uint256(blockhash(block.number - 1)) >> (i * 8) */\n      swap1\n      shr\n        /* \"gas_consumer.sol\":2741:2830  address potentialUser = address(uint160(uint256(blockhash(block.number - 1)) >> (i * 8))) */\n      swap1\n      pop\n        /* \"gas_consumer.sol\":2880:2881  0 */\n      0x00\n        /* \"gas_consumer.sol\":2872:2882  bytes32(0) */\n      dup1\n      shl\n        /* \"gas_consumer.sol\":2844:2854  bestHashes */\n      0x01\n        /* \"gas_consumer.sol\":2844:2869  bestHashes[potentialUser] */\n      0x00\n        /* \"gas_consumer.sol\":2855:2868  potentialUser */\n      dup4\n        /* \"gas_consumer.sol\":2844:2869  bestHashes[potentialUser] */\n      0xffffffffffffffffffffffffffffffffffffffff\n      and\n      0xffffffffffffffffffffffffffffffffffffffff\n      and\n      dup2\n      mstore\n      0x20\n      add\n      swap1\n      dup2\n      mstore\n      0x20\n      add\n      0x00\n      keccak256\n        /* \"gas_consumer.sol\":2844:2882  bestHashes[potentialUser] = bytes32(0) */\n      dup2\n      swap1\n      sstore\n      pop\n        /* \"gas_consumer.sol\":2727:2893  {... */\n      pop\n        /* \"gas_consumer.sol\":2722:2725  i++ */\n      dup1\n      dup1\n      0x01\n      add\n      swap2\n      pop\n      pop\n        /* \"gas_consumer.sol\":2693:2893  for (uint256 i = 0; i < 256; i++) {... */\n      jump(tag_93)\n    tag_94:\n      pop\n        /* \"gas_consumer.sol\":1807:2899  {... */\n      pop\n      pop\n      pop\n      pop\n      pop\n        /* \"gas_consumer.sol\":1764:2899  function finish_round() external onlyOwner {... */\n      jump\t// out\n        /* \"gas_consumer.sol\":1218:1758  function feed_mammoth() external {... */\n    tag_23:\n        /* \"gas_consumer.sol\":1261:1274  uint256 nonce */\n      0x00\n        /* \"gas_consumer.sol\":1293:1303  msg.sender */\n      caller\n        /* \"gas_consumer.sol\":1277:1305  uint256(uint160(msg.sender)) */\n      0xffffffffffffffffffffffffffffffffffffffff\n      and\n        /* \"gas_consumer.sol\":1261:1305  uint256 nonce = uint256(uint160(msg.sender)) */\n      swap1\n      pop\n        /* \"gas_consumer.sol\":1315:1330  bytes32 newHash */\n      0x00\n        /* \"gas_consumer.sol\":1360:1365  nonce */\n      dup2\n        /* \"gas_consumer.sol\":1392:1393  1 */\n      0x01\n        /* \"gas_consumer.sol\":1377:1389  block.number */\n      number\n        /* \"gas_consumer.sol\":1377:1393  block.number - 1 */\n      tag_101\n      swap2\n      swap1\n      tag_99\n      jump\t// in\n    tag_101:\n        /* \"gas_consumer.sol\":1367:1394  blockhash(block.number - 1) */\n      blockhash\n        /* \"gas_consumer.sol\":1396:1406  msg.sender */\n      caller\n        /* \"gas_consumer.sol\":1343:1407  abi.encodePacked(nonce, blockhash(block.number - 1), msg.sender) */\n      add(0x20, mload(0x40))\n      tag_102\n      swap4\n      swap3\n      swap2\n      swap1\n      tag_103\n      jump\t// in\n    tag_102:\n      mload(0x40)\n      0x20\n      dup2\n      dup4\n      sub\n      sub\n      dup2\n      mstore\n      swap1\n      0x40\n      mstore\n        /* \"gas_consumer.sol\":1333:1408  keccak256(abi.encodePacked(nonce, blockhash(block.number - 1), msg.sender)) */\n      dup1\n      mload\n      swap1\n      0x20\n      add\n      keccak256\n        /* \"gas_consumer.sol\":1315:1408  bytes32 newHash = keccak256(abi.encodePacked(nonce, blockhash(block.number - 1), msg.sender)) */\n      swap1\n      pop\n        /* \"gas_consumer.sol\":1457:1458  0 */\n      0x00\n        /* \"gas_consumer.sol\":1449:1459  bytes32(0) */\n      dup1\n      shl\n        /* \"gas_consumer.sol\":1423:1433  bestHashes */\n      0x01\n        /* \"gas_consumer.sol\":1423:1445  bestHashes[msg.sender] */\n      0x00\n        /* \"gas_consumer.sol\":1434:1444  msg.sender */\n      caller\n        /* \"gas_consumer.sol\":1423:1445  bestHashes[msg.sender] */\n      0xffffffffffffffffffffffffffffffffffffffff\n      and\n      0xffffffffffffffffffffffffffffffffffffffff\n      and\n      dup2\n      mstore\n      0x20\n      add\n      swap1\n      dup2\n      mstore\n      0x20\n      add\n      0x00\n      keccak256\n      sload\n        /* \"gas_consumer.sol\":1423:1459  bestHashes[msg.sender] == bytes32(0) */\n      eq\n        /* \"gas_consumer.sol\":1423:1495  bestHashes[msg.sender] == bytes32(0) || newHash < bestHashes[msg.sender] */\n      dup1\n      tag_104\n      jumpi\n      pop\n        /* \"gas_consumer.sol\":1473:1483  bestHashes */\n      0x01\n        /* \"gas_consumer.sol\":1473:1495  bestHashes[msg.sender] */\n      0x00\n        /* \"gas_consumer.sol\":1484:1494  msg.sender */\n      caller\n        /* \"gas_consumer.sol\":1473:1495  bestHashes[msg.sender] */\n      0xffffffffffffffffffffffffffffffffffffffff\n      and\n      0xffffffffffffffffffffffffffffffffffffffff\n      and\n      dup2\n      mstore\n      0x20\n      add\n      swap1\n      dup2\n      mstore\n      0x20\n      add\n      0x00\n      keccak256\n      sload\n        /* \"gas_consumer.sol\":1463:1470  newHash */\n      dup2\n        /* \"gas_consumer.sol\":1463:1495  newHash < bestHashes[msg.sender] */\n      lt\n        /* \"gas_consumer.sol\":1423:1495  bestHashes[msg.sender] == bytes32(0) || newHash < bestHashes[msg.sender] */\n    tag_104:\n        /* \"gas_consumer.sol\":1419:1605  if (bestHashes[msg.sender] == bytes32(0) || newHash < bestHashes[msg.sender]) {... */\n      iszero\n      tag_105\n      jumpi\n        /* \"gas_consumer.sol\":1536:1543  newHash */\n      dup1\n        /* \"gas_consumer.sol\":1511:1521  bestHashes */\n      0x01\n        /* \"gas_consumer.sol\":1511:1533  bestHashes[msg.sender] */\n      0x00\n        /* \"gas_consumer.sol\":1522:1532  msg.sender */\n      caller\n        /* \"gas_consumer.sol\":1511:1533  bestHashes[msg.sender] */\n      0xffffffffffffffffffffffffffffffffffffffff\n      and\n      0xffffffffffffffffffffffffffffffffffffffff\n      and\n      dup2\n      mstore\n      0x20\n      add\n      swap1\n      dup2\n      mstore\n      0x20\n      add\n      0x00\n      keccak256\n        /* \"gas_consumer.sol\":1511:1543  bestHashes[msg.sender] = newHash */\n      dup2\n      swap1\n      sstore\n      pop\n        /* \"gas_consumer.sol\":1574:1584  msg.sender */\n      caller\n        /* \"gas_consumer.sol\":1562:1594  HashUpdated(msg.sender, newHash) */\n      0xffffffffffffffffffffffffffffffffffffffff\n      and\n      0xe0580e65e31c995b4cd3d5c8a911e89d31ef328be761a1ca2f35b795d00a152c\n        /* \"gas_consumer.sol\":1586:1593  newHash */\n      dup3\n        /* \"gas_consumer.sol\":1562:1594  HashUpdated(msg.sender, newHash) */\n      mload(0x40)\n      tag_106\n      swap2\n      swap1\n      tag_29\n      jump\t// in\n    tag_106:\n      mload(0x40)\n      dup1\n      swap2\n      sub\n      swap1\n      log2\n        /* \"gas_consumer.sol\":1419:1605  if (bestHashes[msg.sender] == bytes32(0) || newHash < bestHashes[msg.sender]) {... */\n    tag_105:\n        /* \"gas_consumer.sol\":1664:1672  bestHash */\n      sload(0x03)\n        /* \"gas_consumer.sol\":1654:1661  newHash */\n      dup2\n        /* \"gas_consumer.sol\":1654:1672  newHash < bestHash */\n      lt\n        /* \"gas_consumer.sol\":1650:1752  if (newHash < bestHash) {... */\n      iszero\n      tag_107\n      jumpi\n        /* \"gas_consumer.sol\":1699:1706  newHash */\n      dup1\n        /* \"gas_consumer.sol\":1688:1696  bestHash */\n      0x03\n        /* \"gas_consumer.sol\":1688:1706  bestHash = newHash */\n      dup2\n      swap1\n      sstore\n      pop\n        /* \"gas_consumer.sol\":1731:1741  msg.sender */\n      caller\n        /* \"gas_consumer.sol\":1720:1728  bestUser */\n      0x02\n      0x00\n        /* \"gas_consumer.sol\":1720:1741  bestUser = msg.sender */\n      0x0100\n      exp\n      dup2\n      sload\n      dup2\n      0xffffffffffffffffffffffffffffffffffffffff\n      mul\n      not\n      and\n      swap1\n      dup4\n      0xffffffffffffffffffffffffffffffffffffffff\n      and\n      mul\n      or\n      swap1\n      sstore\n      pop\n        /* \"gas_consumer.sol\":1650:1752  if (newHash < bestHash) {... */\n    tag_107:\n        /* \"gas_consumer.sol\":1251:1758  {... */\n      pop\n      pop\n        /* \"gas_consumer.sol\":1218:1758  function feed_mammoth() external {... */\n      jump\t// out\n        /* \"gas_consumer.sol\":311:356  mapping(address => bytes32) public bestHashes */\n    tag_27:\n      mstore(0x20, 0x01)\n      dup1\n      0x00\n      mstore\n      keccak256(0x00, 0x40)\n      0x00\n      swap2\n      pop\n      swap1\n      pop\n      sload\n      dup2\n      jump\t// out\n        /* \"gas_consumer.sol\":2905:3153  function emergencyWithdrawXP() external onlyOwner {... */\n    tag_31:\n        /* \"gas_consumer.sol\":710:715  owner */\n      0x00\n      dup1\n      sload\n      swap1\n      0x0100\n      exp\n      swap1\n      div\n      0xffffffffffffffffffffffffffffffffffffffff\n      and\n        /* \"gas_consumer.sol\":696:715  msg.sender == owner */\n      0xffffffffffffffffffffffffffffffffffffffff\n      and\n        /* \"gas_consumer.sol\":696:706  msg.sender */\n      caller\n        /* \"gas_consumer.sol\":696:715  msg.sender == owner */\n      0xffffffffffffffffffffffffffffffffffffffff\n      and\n      eq\n        /* \"gas_consumer.sol\":688:753  require(msg.sender == owner, \"Only owner can call this function\") */\n      tag_109\n      jumpi\n      mload(0x40)\n      0x08c379a000000000000000000000000000000000000000000000000000000000\n      dup2\n      mstore\n      0x04\n      add\n      tag_110\n      swap1\n      tag_63\n      jump\t// in\n    tag_110:\n      mload(0x40)\n      dup1\n      swap2\n      sub\n      swap1\n      revert\n    tag_109:\n        /* \"gas_consumer.sol\":2965:2980  uint256 balance */\n      0x00\n        /* \"gas_consumer.sol\":2983:2990  xpToken */\n      0x04\n      0x00\n      swap1\n      sload\n      swap1\n      0x0100\n      exp\n      swap1\n      div\n      0xffffffffffffffffffffffffffffffffffffffff\n      and\n        /* \"gas_consumer.sol\":2983:3000  xpToken.balanceOf */\n      0xffffffffffffffffffffffffffffffffffffffff\n      and\n      0x70a08231\n        /* \"gas_consumer.sol\":3009:3013  this */\n      address\n        /* \"gas_consumer.sol\":2983:3015  xpToken.balanceOf(address(this)) */\n      mload(0x40)\n      dup3\n      0xffffffff\n      and\n      0xe0\n      shl\n      dup2\n      mstore\n      0x04\n      add\n      tag_112\n      swap2\n      swap1\n      tag_35\n      jump\t// in\n    tag_112:\n      0x20\n      mload(0x40)\n      dup1\n      dup4\n      sub\n      dup2\n      dup7\n      gas\n      staticcall\n      iszero\n      dup1\n      iszero\n      tag_114\n      jumpi\n      returndatasize\n      0x00\n      dup1\n      returndatacopy\n      revert(0x00, returndatasize)\n    tag_114:\n      pop\n      pop\n      pop\n      pop\n      mload(0x40)\n      returndatasize\n      not(0x1f)\n      0x1f\n      dup3\n      add\n      and\n      dup3\n      add\n      dup1\n      0x40\n      mstore\n      pop\n      dup2\n      add\n      swap1\n      tag_115\n      swap2\n      swap1\n      tag_77\n      jump\t// in\n    tag_115:\n        /* \"gas_consumer.sol\":2965:3015  uint256 balance = xpToken.balanceOf(address(this)) */\n      swap1\n      pop\n        /* \"gas_consumer.sol\":3043:3044  0 */\n      0x00\n        /* \"gas_consumer.sol\":3033:3040  balance */\n      dup2\n        /* \"gas_consumer.sol\":3033:3044  balance > 0 */\n      gt\n        /* \"gas_consumer.sol\":3025:3073  require(balance > 0, \"No XP tokens to withdraw\") */\n      tag_116\n      jumpi\n      mload(0x40)\n      0x08c379a000000000000000000000000000000000000000000000000000000000\n      dup2\n      mstore\n      0x04\n      add\n      tag_117\n      swap1\n      tag_118\n      jump\t// in\n    tag_117:\n      mload(0x40)\n      dup1\n      swap2\n      sub\n      swap1\n      revert\n    tag_116:\n        /* \"gas_consumer.sol\":3091:3098  xpToken */\n      0x04\n      0x00\n      swap1\n      sload\n      swap1\n      0x0100\n      exp\n      swap1\n      div\n      0xffffffffffffffffffffffffffffffffffffffff\n      and\n        /* \"gas_consumer.sol\":3091:3107  xpToken.transfer */\n      0xffffffffffffffffffffffffffffffffffffffff\n      and\n      0xa9059cbb\n        /* \"gas_consumer.sol\":3108:3113  owner */\n      0x00\n      dup1\n      sload\n      swap1\n      0x0100\n      exp\n      swap1\n      div\n      0xffffffffffffffffffffffffffffffffffffffff\n      and\n        /* \"gas_consumer.sol\":3115:3122  balance */\n      dup4\n        /* \"gas_consumer.sol\":3091:3123  xpToken.transfer(owner, balance) */\n      mload(0x40)\n      dup4\n      0xffffffff\n      and\n      0xe0\n      shl\n      dup2\n      mstore\n      0x04\n      add\n      tag_119\n      swap3\n      swap2\n      swap1\n      tag_83\n      jump\t// in\n    tag_119:\n      0x20\n      mload(0x40)\n      dup1\n      dup4\n      sub\n      dup2\n      0x00\n      dup8\n      gas\n      call\n      iszero\n      dup1\n      iszero\n      tag_121\n      jumpi\n      returndatasize\n      0x00\n      dup1\n      returndatacopy\n      revert(0x00, returndatasize)\n    tag_121:\n      pop\n      pop\n      pop\n      pop\n      mload(0x40)\n      returndatasize\n      not(0x1f)\n      0x1f\n      dup3\n      add\n      and\n      dup3\n      add\n      dup1\n      0x40\n      mstore\n      pop\n      dup2\n      add\n      swap1\n      tag_122\n      swap2\n      swap1\n      tag_87\n      jump\t// in\n    tag_122:\n        /* \"gas_consumer.sol\":3083:3146  require(xpToken.transfer(owner, balance), \"XP transfer failed\") */\n      tag_123\n      jumpi\n      mload(0x40)\n      0x08c379a000000000000000000000000000000000000000000000000000000000\n      dup2\n      mstore\n      0x04\n      add\n      tag_124\n      swap1\n      tag_90\n      jump\t// in\n    tag_124:\n      mload(0x40)\n      dup1\n      swap2\n      sub\n      swap1\n      revert\n    tag_123:\n        /* \"gas_consumer.sol\":2955:3153  {... */\n      pop\n        /* \"gas_consumer.sol\":2905:3153  function emergencyWithdrawXP() external onlyOwner {... */\n      jump\t// out\n        /* \"gas_consumer.sol\":285:305  address public owner */\n    tag_33:\n      0x00\n      dup1\n      sload\n      swap1\n      0x0100\n      exp\n      swap1\n      div\n      0xffffffffffffffffffffffffffffffffffffffff\n      and\n      dup2\n      jump\t// out\n        /* \"gas_consumer.sol\":3159:3334  function setXPToken(address _newXPToken) external onlyOwner {... */\n    tag_38:\n        /* \"gas_consumer.sol\":710:715  owner */\n      0x00\n      dup1\n      sload\n      swap1\n      0x0100\n      exp\n      swap1\n      div\n      0xffffffffffffffffffffffffffffffffffffffff\n      and\n        /* \"gas_consumer.sol\":696:715  msg.sender == owner */\n      0xffffffffffffffffffffffffffffffffffffffff\n      and\n        /* \"gas_consumer.sol\":696:706  msg.sender */\n      caller\n        /* \"gas_consumer.sol\":696:715  msg.sender == owner */\n      0xffffffffffffffffffffffffffffffffffffffff\n      and\n      eq\n        /* \"gas_consumer.sol\":688:753  require(msg.sender == owner, \"Only owner can call this function\") */\n      tag_126\n      jumpi\n      mload(0x40)\n      0x08c379a000000000000000000000000000000000000000000000000000000000\n      dup2\n      mstore\n      0x04\n      add\n      tag_127\n      swap1\n      tag_63\n      jump\t// in\n    tag_127:\n      mload(0x40)\n      dup1\n      swap2\n      sub\n      swap1\n      revert\n    tag_126:\n        /* \"gas_consumer.sol\":3260:3261  0 */\n      0x00\n        /* \"gas_consumer.sol\":3237:3262  _newXPToken != address(0) */\n      0xffffffffffffffffffffffffffffffffffffffff\n      and\n        /* \"gas_consumer.sol\":3237:3248  _newXPToken */\n      dup2\n        /* \"gas_consumer.sol\":3237:3262  _newXPToken != address(0) */\n      0xffffffffffffffffffffffffffffffffffffffff\n      and\n      sub\n        /* \"gas_consumer.sol\":3229:3288  require(_newXPToken != address(0), \"Invalid token address\") */\n      tag_129\n      jumpi\n      mload(0x40)\n      0x08c379a000000000000000000000000000000000000000000000000000000000\n      dup2\n      mstore\n      0x04\n      add\n      tag_130\n      swap1\n      tag_131\n      jump\t// in\n    tag_130:\n      mload(0x40)\n      dup1\n      swap2\n      sub\n      swap1\n      revert\n    tag_129:\n        /* \"gas_consumer.sol\":3315:3326  _newXPToken */\n      dup1\n        /* \"gas_consumer.sol\":3298:3305  xpToken */\n      0x04\n      0x00\n        /* \"gas_consumer.sol\":3298:3327  xpToken = IERC20(_newXPToken) */\n      0x0100\n      exp\n      dup2\n      sload\n      dup2\n      0xffffffffffffffffffffffffffffffffffffffff\n      mul\n      not\n      and\n      swap1\n      dup4\n      0xffffffffffffffffffffffffffffffffffffffff\n      and\n      mul\n      or\n      swap1\n      sstore\n      pop\n        /* \"gas_consumer.sol\":3159:3334  function setXPToken(address _newXPToken) external onlyOwner {... */\n      pop\n      jump\t// out\n        /* \"gas_consumer.sol\":486:507  IERC20 public xpToken */\n    tag_40:\n      0x04\n      0x00\n      swap1\n      sload\n      swap1\n      0x0100\n      exp\n      swap1\n      div\n      0xffffffffffffffffffffffffffffffffffffffff\n      and\n      dup2\n      jump\t// out\n        /* \"gas_consumer.sol\":362:385  address public bestUser */\n    tag_44:\n      0x02\n      0x00\n      swap1\n      sload\n      swap1\n      0x0100\n      exp\n      swap1\n      div\n      0xffffffffffffffffffffffffffffffffffffffff\n      and\n      dup2\n      jump\t// out\n        /* \"gas_consumer.sol\":391:443  bytes32 public bestHash = bytes32(type(uint256).max) */\n    tag_47:\n      sload(0x03)\n      dup2\n      jump\t// out\n        /* \"#utility.yul\":88:205   */\n    tag_133:\n        /* \"#utility.yul\":197:198   */\n      0x00\n        /* \"#utility.yul\":194:195   */\n      dup1\n        /* \"#utility.yul\":187:199   */\n      revert\n        /* \"#utility.yul\":334:411   */\n    tag_135:\n        /* \"#utility.yul\":371:378   */\n      0x00\n        /* \"#utility.yul\":400:405   */\n      dup2\n        /* \"#utility.yul\":389:405   */\n      swap1\n      pop\n        /* \"#utility.yul\":334:411   */\n      swap2\n      swap1\n      pop\n      jump\t// out\n        /* \"#utility.yul\":417:539   */\n    tag_136:\n        /* \"#utility.yul\":490:514   */\n      tag_186\n        /* \"#utility.yul\":508:513   */\n      dup2\n        /* \"#utility.yul\":490:514   */\n      tag_135\n      jump\t// in\n    tag_186:\n        /* \"#utility.yul\":483:488   */\n      dup2\n        /* \"#utility.yul\":480:515   */\n      eq\n        /* \"#utility.yul\":470:533   */\n      tag_187\n      jumpi\n        /* \"#utility.yul\":529:530   */\n      0x00\n        /* \"#utility.yul\":526:527   */\n      dup1\n        /* \"#utility.yul\":519:531   */\n      revert\n        /* \"#utility.yul\":470:533   */\n    tag_187:\n        /* \"#utility.yul\":417:539   */\n      pop\n      jump\t// out\n        /* \"#utility.yul\":545:684   */\n    tag_137:\n        /* \"#utility.yul\":591:596   */\n      0x00\n        /* \"#utility.yul\":629:635   */\n      dup2\n        /* \"#utility.yul\":616:636   */\n      calldataload\n        /* \"#utility.yul\":607:636   */\n      swap1\n      pop\n        /* \"#utility.yul\":645:678   */\n      tag_189\n        /* \"#utility.yul\":672:677   */\n      dup2\n        /* \"#utility.yul\":645:678   */\n      tag_136\n      jump\t// in\n    tag_189:\n        /* \"#utility.yul\":545:684   */\n      swap3\n      swap2\n      pop\n      pop\n      jump\t// out\n        /* \"#utility.yul\":690:1019   */\n    tag_16:\n        /* \"#utility.yul\":749:755   */\n      0x00\n        /* \"#utility.yul\":798:800   */\n      0x20\n        /* \"#utility.yul\":786:795   */\n      dup3\n        /* \"#utility.yul\":777:784   */\n      dup5\n        /* \"#utility.yul\":773:796   */\n      sub\n        /* \"#utility.yul\":769:801   */\n      slt\n        /* \"#utility.yul\":766:885   */\n      iszero\n      tag_191\n      jumpi\n        /* \"#utility.yul\":804:883   */\n      tag_192\n      tag_133\n      jump\t// in\n    tag_192:\n        /* \"#utility.yul\":766:885   */\n    tag_191:\n        /* \"#utility.yul\":924:925   */\n      0x00\n        /* \"#utility.yul\":949:1002   */\n      tag_193\n        /* \"#utility.yul\":994:1001   */\n      dup5\n        /* \"#utility.yul\":985:991   */\n      dup3\n        /* \"#utility.yul\":974:983   */\n      dup6\n        /* \"#utility.yul\":970:992   */\n      add\n        /* \"#utility.yul\":949:1002   */\n      tag_137\n      jump\t// in\n    tag_193:\n        /* \"#utility.yul\":939:1002   */\n      swap2\n      pop\n        /* \"#utility.yul\":895:1012   */\n      pop\n        /* \"#utility.yul\":690:1019   */\n      swap3\n      swap2\n      pop\n      pop\n      jump\t// out\n        /* \"#utility.yul\":1025:1102   */\n    tag_138:\n        /* \"#utility.yul\":1062:1069   */\n      0x00\n        /* \"#utility.yul\":1091:1096   */\n      dup2\n        /* \"#utility.yul\":1080:1096   */\n      swap1\n      pop\n        /* \"#utility.yul\":1025:1102   */\n      swap2\n      swap1\n      pop\n      jump\t// out\n        /* \"#utility.yul\":1108:1226   */\n    tag_139:\n        /* \"#utility.yul\":1195:1219   */\n      tag_196\n        /* \"#utility.yul\":1213:1218   */\n      dup2\n        /* \"#utility.yul\":1195:1219   */\n      tag_138\n      jump\t// in\n    tag_196:\n        /* \"#utility.yul\":1190:1193   */\n      dup3\n        /* \"#utility.yul\":1183:1220   */\n      mstore\n        /* \"#utility.yul\":1108:1226   */\n      pop\n      pop\n      jump\t// out\n        /* \"#utility.yul\":1232:1454   */\n    tag_19:\n        /* \"#utility.yul\":1325:1329   */\n      0x00\n        /* \"#utility.yul\":1363:1365   */\n      0x20\n        /* \"#utility.yul\":1352:1361   */\n      dup3\n        /* \"#utility.yul\":1348:1366   */\n      add\n        /* \"#utility.yul\":1340:1366   */\n      swap1\n      pop\n        /* \"#utility.yul\":1376:1447   */\n      tag_198\n        /* \"#utility.yul\":1444:1445   */\n      0x00\n        /* \"#utility.yul\":1433:1442   */\n      dup4\n        /* \"#utility.yul\":1429:1446   */\n      add\n        /* \"#utility.yul\":1420:1426   */\n      dup5\n        /* \"#utility.yul\":1376:1447   */\n      tag_139\n      jump\t// in\n    tag_198:\n        /* \"#utility.yul\":1232:1454   */\n      swap3\n      swap2\n      pop\n      pop\n      jump\t// out\n        /* \"#utility.yul\":1460:1586   */\n    tag_140:\n        /* \"#utility.yul\":1497:1504   */\n      0x00\n        /* \"#utility.yul\":1537:1579   */\n      0xffffffffffffffffffffffffffffffffffffffff\n        /* \"#utility.yul\":1530:1535   */\n      dup3\n        /* \"#utility.yul\":1526:1580   */\n      and\n        /* \"#utility.yul\":1515:1580   */\n      swap1\n      pop\n        /* \"#utility.yul\":1460:1586   */\n      swap2\n      swap1\n      pop\n      jump\t// out\n        /* \"#utility.yul\":1592:1688   */\n    tag_141:\n        /* \"#utility.yul\":1629:1636   */\n      0x00\n        /* \"#utility.yul\":1658:1682   */\n      tag_201\n        /* \"#utility.yul\":1676:1681   */\n      dup3\n        /* \"#utility.yul\":1658:1682   */\n      tag_140\n      jump\t// in\n    tag_201:\n        /* \"#utility.yul\":1647:1682   */\n      swap1\n      pop\n        /* \"#utility.yul\":1592:1688   */\n      swap2\n      swap1\n      pop\n      jump\t// out\n        /* \"#utility.yul\":1694:1816   */\n    tag_142:\n        /* \"#utility.yul\":1767:1791   */\n      tag_203\n        /* \"#utility.yul\":1785:1790   */\n      dup2\n        /* \"#utility.yul\":1767:1791   */\n      tag_141\n      jump\t// in\n    tag_203:\n        /* \"#utility.yul\":1760:1765   */\n      dup2\n        /* \"#utility.yul\":1757:1792   */\n      eq\n        /* \"#utility.yul\":1747:1810   */\n      tag_204\n      jumpi\n        /* \"#utility.yul\":1806:1807   */\n      0x00\n        /* \"#utility.yul\":1803:1804   */\n      dup1\n        /* \"#utility.yul\":1796:1808   */\n      revert\n        /* \"#utility.yul\":1747:1810   */\n    tag_204:\n        /* \"#utility.yul\":1694:1816   */\n      pop\n      jump\t// out\n        /* \"#utility.yul\":1822:1961   */\n    tag_143:\n        /* \"#utility.yul\":1868:1873   */\n      0x00\n        /* \"#utility.yul\":1906:1912   */\n      dup2\n        /* \"#utility.yul\":1893:1913   */\n      calldataload\n        /* \"#utility.yul\":1884:1913   */\n      swap1\n      pop\n        /* \"#utility.yul\":1922:1955   */\n      tag_206\n        /* \"#utility.yul\":1949:1954   */\n      dup2\n        /* \"#utility.yul\":1922:1955   */\n      tag_142\n      jump\t// in\n    tag_206:\n        /* \"#utility.yul\":1822:1961   */\n      swap3\n      swap2\n      pop\n      pop\n      jump\t// out\n        /* \"#utility.yul\":1967:2296   */\n    tag_26:\n        /* \"#utility.yul\":2026:2032   */\n      0x00\n        /* \"#utility.yul\":2075:2077   */\n      0x20\n        /* \"#utility.yul\":2063:2072   */\n      dup3\n        /* \"#utility.yul\":2054:2061   */\n      dup5\n        /* \"#utility.yul\":2050:2073   */\n      sub\n        /* \"#utility.yul\":2046:2078   */\n      slt\n        /* \"#utility.yul\":2043:2162   */\n      iszero\n      tag_208\n      jumpi\n        /* \"#utility.yul\":2081:2160   */\n      tag_209\n      tag_133\n      jump\t// in\n    tag_209:\n        /* \"#utility.yul\":2043:2162   */\n    tag_208:\n        /* \"#utility.yul\":2201:2202   */\n      0x00\n        /* \"#utility.yul\":2226:2279   */\n      tag_210\n        /* \"#utility.yul\":2271:2278   */\n      dup5\n        /* \"#utility.yul\":2262:2268   */\n      dup3\n        /* \"#utility.yul\":2251:2260   */\n      dup6\n        /* \"#utility.yul\":2247:2269   */\n      add\n        /* \"#utility.yul\":2226:2279   */\n      tag_143\n      jump\t// in\n    tag_210:\n        /* \"#utility.yul\":2216:2279   */\n      swap2\n      pop\n        /* \"#utility.yul\":2172:2289   */\n      pop\n        /* \"#utility.yul\":1967:2296   */\n      swap3\n      swap2\n      pop\n      pop\n      jump\t// out\n        /* \"#utility.yul\":2302:2420   */\n    tag_144:\n        /* \"#utility.yul\":2389:2413   */\n      tag_212\n        /* \"#utility.yul\":2407:2412   */\n      dup2\n        /* \"#utility.yul\":2389:2413   */\n      tag_135\n      jump\t// in\n    tag_212:\n        /* \"#utility.yul\":2384:2387   */\n      dup3\n        /* \"#utility.yul\":2377:2414   */\n      mstore\n        /* \"#utility.yul\":2302:2420   */\n      pop\n      pop\n      jump\t// out\n        /* \"#utility.yul\":2426:2648   */\n    tag_29:\n        /* \"#utility.yul\":2519:2523   */\n      0x00\n        /* \"#utility.yul\":2557:2559   */\n      0x20\n        /* \"#utility.yul\":2546:2555   */\n      dup3\n        /* \"#utility.yul\":2542:2560   */\n      add\n        /* \"#utility.yul\":2534:2560   */\n      swap1\n      pop\n        /* \"#utility.yul\":2570:2641   */\n      tag_214\n        /* \"#utility.yul\":2638:2639   */\n      0x00\n        /* \"#utility.yul\":2627:2636   */\n      dup4\n        /* \"#utility.yul\":2623:2640   */\n      add\n        /* \"#utility.yul\":2614:2620   */\n      dup5\n        /* \"#utility.yul\":2570:2641   */\n      tag_144\n      jump\t// in\n    tag_214:\n        /* \"#utility.yul\":2426:2648   */\n      swap3\n      swap2\n      pop\n      pop\n      jump\t// out\n        /* \"#utility.yul\":2654:2772   */\n    tag_145:\n        /* \"#utility.yul\":2741:2765   */\n      tag_216\n        /* \"#utility.yul\":2759:2764   */\n      dup2\n        /* \"#utility.yul\":2741:2765   */\n      tag_141\n      jump\t// in\n    tag_216:\n        /* \"#utility.yul\":2736:2739   */\n      dup3\n        /* \"#utility.yul\":2729:2766   */\n      mstore\n        /* \"#utility.yul\":2654:2772   */\n      pop\n      pop\n      jump\t// out\n        /* \"#utility.yul\":2778:3000   */\n    tag_35:\n        /* \"#utility.yul\":2871:2875   */\n      0x00\n        /* \"#utility.yul\":2909:2911   */\n      0x20\n        /* \"#utility.yul\":2898:2907   */\n      dup3\n        /* \"#utility.yul\":2894:2912   */\n      add\n        /* \"#utility.yul\":2886:2912   */\n      swap1\n      pop\n        /* \"#utility.yul\":2922:2993   */\n      tag_218\n        /* \"#utility.yul\":2990:2991   */\n      0x00\n        /* \"#utility.yul\":2979:2988   */\n      dup4\n        /* \"#utility.yul\":2975:2992   */\n      add\n        /* \"#utility.yul\":2966:2972   */\n      dup5\n        /* \"#utility.yul\":2922:2993   */\n      tag_145\n      jump\t// in\n    tag_218:\n        /* \"#utility.yul\":2778:3000   */\n      swap3\n      swap2\n      pop\n      pop\n      jump\t// out\n        /* \"#utility.yul\":3006:3066   */\n    tag_146:\n        /* \"#utility.yul\":3034:3037   */\n      0x00\n        /* \"#utility.yul\":3055:3060   */\n      dup2\n        /* \"#utility.yul\":3048:3060   */\n      swap1\n      pop\n        /* \"#utility.yul\":3006:3066   */\n      swap2\n      swap1\n      pop\n      jump\t// out\n        /* \"#utility.yul\":3072:3214   */\n    tag_147:\n        /* \"#utility.yul\":3122:3131   */\n      0x00\n        /* \"#utility.yul\":3155:3208   */\n      tag_221\n        /* \"#utility.yul\":3173:3207   */\n      tag_222\n        /* \"#utility.yul\":3182:3206   */\n      tag_223\n        /* \"#utility.yul\":3200:3205   */\n      dup5\n        /* \"#utility.yul\":3182:3206   */\n      tag_140\n      jump\t// in\n    tag_223:\n        /* \"#utility.yul\":3173:3207   */\n      tag_146\n      jump\t// in\n    tag_222:\n        /* \"#utility.yul\":3155:3208   */\n      tag_140\n      jump\t// in\n    tag_221:\n        /* \"#utility.yul\":3142:3208   */\n      swap1\n      pop\n        /* \"#utility.yul\":3072:3214   */\n      swap2\n      swap1\n      pop\n      jump\t// out\n        /* \"#utility.yul\":3220:3346   */\n    tag_148:\n        /* \"#utility.yul\":3270:3279   */\n      0x00\n        /* \"#utility.yul\":3303:3340   */\n      tag_225\n        /* \"#utility.yul\":3334:3339   */\n      dup3\n        /* \"#utility.yul\":3303:3340   */\n      tag_147\n      jump\t// in\n    tag_225:\n        /* \"#utility.yul\":3290:3340   */\n      swap1\n      pop\n        /* \"#utility.yul\":3220:3346   */\n      swap2\n      swap1\n      pop\n      jump\t// out\n        /* \"#utility.yul\":3352:3491   */\n    tag_149:\n        /* \"#utility.yul\":3415:3424   */\n      0x00\n        /* \"#utility.yul\":3448:3485   */\n      tag_227\n        /* \"#utility.yul\":3479:3484   */\n      dup3\n        /* \"#utility.yul\":3448:3485   */\n      tag_148\n      jump\t// in\n    tag_227:\n        /* \"#utility.yul\":3435:3485   */\n      swap1\n      pop\n        /* \"#utility.yul\":3352:3491   */\n      swap2\n      swap1\n      pop\n      jump\t// out\n        /* \"#utility.yul\":3497:3654   */\n    tag_150:\n        /* \"#utility.yul\":3597:3647   */\n      tag_229\n        /* \"#utility.yul\":3641:3646   */\n      dup2\n        /* \"#utility.yul\":3597:3647   */\n      tag_149\n      jump\t// in\n    tag_229:\n        /* \"#utility.yul\":3592:3595   */\n      dup3\n        /* \"#utility.yul\":3585:3648   */\n      mstore\n        /* \"#utility.yul\":3497:3654   */\n      pop\n      pop\n      jump\t// out\n        /* \"#utility.yul\":3660:3908   */\n    tag_42:\n        /* \"#utility.yul\":3766:3770   */\n      0x00\n        /* \"#utility.yul\":3804:3806   */\n      0x20\n        /* \"#utility.yul\":3793:3802   */\n      dup3\n        /* \"#utility.yul\":3789:3807   */\n      add\n        /* \"#utility.yul\":3781:3807   */\n      swap1\n      pop\n        /* \"#utility.yul\":3817:3901   */\n      tag_231\n        /* \"#utility.yul\":3898:3899   */\n      0x00\n        /* \"#utility.yul\":3887:3896   */\n      dup4\n        /* \"#utility.yul\":3883:3900   */\n      add\n        /* \"#utility.yul\":3874:3880   */\n      dup5\n        /* \"#utility.yul\":3817:3901   */\n      tag_150\n      jump\t// in\n    tag_231:\n        /* \"#utility.yul\":3660:3908   */\n      swap3\n      swap2\n      pop\n      pop\n      jump\t// out\n        /* \"#utility.yul\":3914:4094   */\n    tag_151:\n        /* \"#utility.yul\":3962:4039   */\n      0x4e487b7100000000000000000000000000000000000000000000000000000000\n        /* \"#utility.yul\":3959:3960   */\n      0x00\n        /* \"#utility.yul\":3952:4040   */\n      mstore\n        /* \"#utility.yul\":4059:4063   */\n      0x11\n        /* \"#utility.yul\":4056:4057   */\n      0x04\n        /* \"#utility.yul\":4049:4064   */\n      mstore\n        /* \"#utility.yul\":4083:4087   */\n      0x24\n        /* \"#utility.yul\":4080:4081   */\n      0x00\n        /* \"#utility.yul\":4073:4088   */\n      revert\n        /* \"#utility.yul\":4100:4333   */\n    tag_55:\n        /* \"#utility.yul\":4139:4142   */\n      0x00\n        /* \"#utility.yul\":4162:4186   */\n      tag_234\n        /* \"#utility.yul\":4180:4185   */\n      dup3\n        /* \"#utility.yul\":4162:4186   */\n      tag_138\n      jump\t// in\n    tag_234:\n        /* \"#utility.yul\":4153:4186   */\n      swap2\n      pop\n        /* \"#utility.yul\":4208:4274   */\n      0xffffffffffffffffffffffffffffffffffffffffffffffffffffffffffffffff\n        /* \"#utility.yul\":4201:4206   */\n      dup3\n        /* \"#utility.yul\":4198:4275   */\n      sub\n        /* \"#utility.yul\":4195:4298   */\n      tag_235\n      jumpi\n        /* \"#utility.yul\":4278:4296   */\n      tag_236\n      tag_151\n      jump\t// in\n    tag_236:\n        /* \"#utility.yul\":4195:4298   */\n    tag_235:\n        /* \"#utility.yul\":4325:4326   */\n      0x01\n        /* \"#utility.yul\":4318:4323   */\n      dup3\n        /* \"#utility.yul\":4314:4327   */\n      add\n        /* \"#utility.yul\":4307:4327   */\n      swap1\n      pop\n        /* \"#utility.yul\":4100:4333   */\n      swap2\n      swap1\n      pop\n      jump\t// out\n        /* \"#utility.yul\":4339:4510   */\n    tag_57:\n        /* \"#utility.yul\":4378:4381   */\n      0x00\n        /* \"#utility.yul\":4401:4425   */\n      tag_238\n        /* \"#utility.yul\":4419:4424   */\n      dup3\n        /* \"#utility.yul\":4401:4425   */\n      tag_138\n      jump\t// in\n    tag_238:\n        /* \"#utility.yul\":4392:4425   */\n      swap2\n      pop\n        /* \"#utility.yul\":4447:4451   */\n      0x00\n        /* \"#utility.yul\":4440:4445   */\n      dup3\n        /* \"#utility.yul\":4437:4452   */\n      sub\n        /* \"#utility.yul\":4434:4475   */\n      tag_239\n      jumpi\n        /* \"#utility.yul\":4455:4473   */\n      tag_240\n      tag_151\n      jump\t// in\n    tag_240:\n        /* \"#utility.yul\":4434:4475   */\n    tag_239:\n        /* \"#utility.yul\":4502:4503   */\n      0x01\n        /* \"#utility.yul\":4495:4500   */\n      dup3\n        /* \"#utility.yul\":4491:4504   */\n      sub\n        /* \"#utility.yul\":4484:4504   */\n      swap1\n      pop\n        /* \"#utility.yul\":4339:4510   */\n      swap2\n      swap1\n      pop\n      jump\t// out\n        /* \"#utility.yul\":4516:4696   */\n    tag_152:\n        /* \"#utility.yul\":4564:4641   */\n      0x4e487b7100000000000000000000000000000000000000000000000000000000\n        /* \"#utility.yul\":4561:4562   */\n      0x00\n        /* \"#utility.yul\":4554:4642   */\n      mstore\n        /* \"#utility.yul\":4661:4665   */\n      0x12\n        /* \"#utility.yul\":4658:4659   */\n      0x04\n        /* \"#utility.yul\":4651:4666   */\n      mstore\n        /* \"#utility.yul\":4685:4689   */\n      0x24\n        /* \"#utility.yul\":4682:4683   */\n      0x00\n        /* \"#utility.yul\":4675:4690   */\n      revert\n        /* \"#utility.yul\":4702:4887   */\n    tag_59:\n        /* \"#utility.yul\":4742:4743   */\n      0x00\n        /* \"#utility.yul\":4759:4779   */\n      tag_243\n        /* \"#utility.yul\":4777:4778   */\n      dup3\n        /* \"#utility.yul\":4759:4779   */\n      tag_138\n      jump\t// in\n    tag_243:\n        /* \"#utility.yul\":4754:4779   */\n      swap2\n      pop\n        /* \"#utility.yul\":4793:4813   */\n      tag_244\n        /* \"#utility.yul\":4811:4812   */\n      dup4\n        /* \"#utility.yul\":4793:4813   */\n      tag_138\n      jump\t// in\n    tag_244:\n        /* \"#utility.yul\":4788:4813   */\n      swap3\n      pop\n        /* \"#utility.yul\":4832:4833   */\n      dup3\n        /* \"#utility.yul\":4822:4857   */\n      tag_245\n      jumpi\n        /* \"#utility.yul\":4837:4855   */\n      tag_246\n      tag_152\n      jump\t// in\n    tag_246:\n        /* \"#utility.yul\":4822:4857   */\n    tag_245:\n        /* \"#utility.yul\":4879:4880   */\n      dup3\n        /* \"#utility.yul\":4876:4877   */\n      dup3\n        /* \"#utility.yul\":4872:4881   */\n      div\n        /* \"#utility.yul\":4867:4881   */\n      swap1\n      pop\n        /* \"#utility.yul\":4702:4887   */\n      swap3\n      swap2\n      pop\n      pop\n      jump\t// out\n        /* \"#utility.yul\":4893:5062   */\n    tag_153:\n        /* \"#utility.yul\":4977:4988   */\n      0x00\n        /* \"#utility.yul\":5011:5017   */\n      dup3\n        /* \"#utility.yul\":5006:5009   */\n      dup3\n        /* \"#utility.yul\":4999:5018   */\n      mstore\n        /* \"#utility.yul\":5051:5055   */\n      0x20\n        /* \"#utility.yul\":5046:5049   */\n      dup3\n        /* \"#utility.yul\":5042:5056   */\n      add\n        /* \"#utility.yul\":5027:5056   */\n      swap1\n      pop\n        /* \"#utility.yul\":4893:5062   */\n      swap3\n      swap2\n      pop\n      pop\n      jump\t// out\n        /* \"#utility.yul\":5068:5288   */\n    tag_154:\n        /* \"#utility.yul\":5208:5242   */\n      0x4f6e6c79206f776e65722063616e2063616c6c20746869732066756e6374696f\n        /* \"#utility.yul\":5204:5205   */\n      0x00\n        /* \"#utility.yul\":5196:5202   */\n      dup3\n        /* \"#utility.yul\":5192:5206   */\n      add\n        /* \"#utility.yul\":5185:5243   */\n      mstore\n        /* \"#utility.yul\":5277:5280   */\n      0x6e00000000000000000000000000000000000000000000000000000000000000\n        /* \"#utility.yul\":5272:5274   */\n      0x20\n        /* \"#utility.yul\":5264:5270   */\n      dup3\n        /* \"#utility.yul\":5260:5275   */\n      add\n        /* \"#utility.yul\":5253:5281   */\n      mstore\n        /* \"#utility.yul\":5068:5288   */\n      pop\n      jump\t// out\n        /* \"#utility.yul\":5294:5660   */\n    tag_155:\n        /* \"#utility.yul\":5436:5439   */\n      0x00\n        /* \"#utility.yul\":5457:5524   */\n      tag_250\n        /* \"#utility.yul\":5521:5523   */\n      0x21\n        /* \"#utility.yul\":5516:5519   */\n      dup4\n        /* \"#utility.yul\":5457:5524   */\n      tag_153\n      jump\t// in\n    tag_250:\n        /* \"#utility.yul\":5450:5524   */\n      swap2\n      pop\n        /* \"#utility.yul\":5533:5626   */\n      tag_251\n        /* \"#utility.yul\":5622:5625   */\n      dup3\n        /* \"#utility.yul\":5533:5626   */\n      tag_154\n      jump\t// in\n    tag_251:\n        /* \"#utility.yul\":5651:5653   */\n      0x40\n        /* \"#utility.yul\":5646:5649   */\n      dup3\n        /* \"#utility.yul\":5642:5654   */\n      add\n        /* \"#utility.yul\":5635:5654   */\n      swap1\n      pop\n        /* \"#utility.yul\":5294:5660   */\n      swap2\n      swap1\n      pop\n      jump\t// out\n        /* \"#utility.yul\":5666:6085   */\n    tag_63:\n        /* \"#utility.yul\":5832:5836   */\n      0x00\n        /* \"#utility.yul\":5870:5872   */\n      0x20\n        /* \"#utility.yul\":5859:5868   */\n      dup3\n        /* \"#utility.yul\":5855:5873   */\n      add\n        /* \"#utility.yul\":5847:5873   */\n      swap1\n      pop\n        /* \"#utility.yul\":5919:5928   */\n      dup2\n        /* \"#utility.yul\":5913:5917   */\n      dup2\n        /* \"#utility.yul\":5909:5929   */\n      sub\n        /* \"#utility.yul\":5905:5906   */\n      0x00\n        /* \"#utility.yul\":5894:5903   */\n      dup4\n        /* \"#utility.yul\":5890:5907   */\n      add\n        /* \"#utility.yul\":5883:5930   */\n      mstore\n        /* \"#utility.yul\":5947:6078   */\n      tag_253\n        /* \"#utility.yul\":6073:6077   */\n      dup2\n        /* \"#utility.yul\":5947:6078   */\n      tag_155\n      jump\t// in\n    tag_253:\n        /* \"#utility.yul\":5939:6078   */\n      swap1\n      pop\n        /* \"#utility.yul\":5666:6085   */\n      swap2\n      swap1\n      pop\n      jump\t// out\n        /* \"#utility.yul\":6091:6262   */\n    tag_156:\n        /* \"#utility.yul\":6231:6254   */\n      0x4e6f2076616c69642077696e6e657220666f756e640000000000000000000000\n        /* \"#utility.yul\":6227:6228   */\n      0x00\n        /* \"#utility.yul\":6219:6225   */\n      dup3\n        /* \"#utility.yul\":6215:6229   */\n      add\n        /* \"#utility.yul\":6208:6255   */\n      mstore\n        /* \"#utility.yul\":6091:6262   */\n      pop\n      jump\t// out\n        /* \"#utility.yul\":6268:6634   */\n    tag_157:\n        /* \"#utility.yul\":6410:6413   */\n      0x00\n        /* \"#utility.yul\":6431:6498   */\n      tag_256\n        /* \"#utility.yul\":6495:6497   */\n      0x15\n        /* \"#utility.yul\":6490:6493   */\n      dup4\n        /* \"#utility.yul\":6431:6498   */\n      tag_153\n      jump\t// in\n    tag_256:\n        /* \"#utility.yul\":6424:6498   */\n      swap2\n      pop\n        /* \"#utility.yul\":6507:6600   */\n      tag_257\n        /* \"#utility.yul\":6596:6599   */\n      dup3\n        /* \"#utility.yul\":6507:6600   */\n      tag_156\n      jump\t// in\n    tag_257:\n        /* \"#utility.yul\":6625:6627   */\n      0x20\n        /* \"#utility.yul\":6620:6623   */\n      dup3\n        /* \"#utility.yul\":6616:6628   */\n      add\n        /* \"#utility.yul\":6609:6628   */\n      swap1\n      pop\n        /* \"#utility.yul\":6268:6634   */\n      swap2\n      swap1\n      pop\n      jump\t// out\n        /* \"#utility.yul\":6640:7059   */\n    tag_67:\n        /* \"#utility.yul\":6806:6810   */\n      0x00\n        /* \"#utility.yul\":6844:6846   */\n      0x20\n        /* \"#utility.yul\":6833:6842   */\n      dup3\n        /* \"#utility.yul\":6829:6847   */\n      add\n        /* \"#utility.yul\":6821:6847   */\n      swap1\n      pop\n        /* \"#utility.yul\":6893:6902   */\n      dup2\n        /* \"#utility.yul\":6887:6891   */\n      dup2\n        /* \"#utility.yul\":6883:6903   */\n      sub\n        /* \"#utility.yul\":6879:6880   */\n      0x00\n        /* \"#utility.yul\":6868:6877   */\n      dup4\n        /* \"#utility.yul\":6864:6881   */\n      add\n        /* \"#utility.yul\":6857:6904   */\n      mstore\n        /* \"#utility.yul\":6921:7052   */\n      tag_259\n        /* \"#utility.yul\":7047:7051   */\n      dup2\n        /* \"#utility.yul\":6921:7052   */\n      tag_157\n      jump\t// in\n    tag_259:\n        /* \"#utility.yul\":6913:7052   */\n      swap1\n      pop\n        /* \"#utility.yul\":6640:7059   */\n      swap2\n      swap1\n      pop\n      jump\t// out\n        /* \"#utility.yul\":7065:7256   */\n    tag_70:\n        /* \"#utility.yul\":7105:7108   */\n      0x00\n        /* \"#utility.yul\":7124:7144   */\n      tag_261\n        /* \"#utility.yul\":7142:7143   */\n      dup3\n        /* \"#utility.yul\":7124:7144   */\n      tag_138\n      jump\t// in\n    tag_261:\n        /* \"#utility.yul\":7119:7144   */\n      swap2\n      pop\n        /* \"#utility.yul\":7158:7178   */\n      tag_262\n        /* \"#utility.yul\":7176:7177   */\n      dup4\n        /* \"#utility.yul\":7158:7178   */\n      tag_138\n      jump\t// in\n    tag_262:\n        /* \"#utility.yul\":7153:7178   */\n      swap3\n      pop\n        /* \"#utility.yul\":7201:7202   */\n      dup3\n        /* \"#utility.yul\":7198:7199   */\n      dup3\n        /* \"#utility.yul\":7194:7203   */\n      add\n        /* \"#utility.yul\":7187:7203   */\n      swap1\n      pop\n        /* \"#utility.yul\":7222:7225   */\n      dup1\n        /* \"#utility.yul\":7219:7220   */\n      dup3\n        /* \"#utility.yul\":7216:7226   */\n      gt\n        /* \"#utility.yul\":7213:7249   */\n      iszero\n      tag_263\n      jumpi\n        /* \"#utility.yul\":7229:7247   */\n      tag_264\n      tag_151\n      jump\t// in\n    tag_264:\n        /* \"#utility.yul\":7213:7249   */\n    tag_263:\n        /* \"#utility.yul\":7065:7256   */\n      swap3\n      swap2\n      pop\n      pop\n      jump\t// out\n        /* \"#utility.yul\":7262:7364   */\n    tag_158:\n        /* \"#utility.yul\":7304:7312   */\n      0x00\n        /* \"#utility.yul\":7351:7356   */\n      dup2\n        /* \"#utility.yul\":7348:7349   */\n      0x01\n        /* \"#utility.yul\":7344:7357   */\n      shr\n        /* \"#utility.yul\":7323:7357   */\n      swap1\n      pop\n        /* \"#utility.yul\":7262:7364   */\n      swap2\n      swap1\n      pop\n      jump\t// out\n        /* \"#utility.yul\":7370:8218   */\n    tag_159:\n        /* \"#utility.yul\":7431:7436   */\n      0x00\n        /* \"#utility.yul\":7438:7442   */\n      dup1\n        /* \"#utility.yul\":7462:7468   */\n      dup3\n        /* \"#utility.yul\":7453:7468   */\n      swap2\n      pop\n        /* \"#utility.yul\":7486:7491   */\n      dup4\n        /* \"#utility.yul\":7477:7491   */\n      swap1\n      pop\n        /* \"#utility.yul\":7500:8212   */\n    tag_267:\n        /* \"#utility.yul\":7521:7522   */\n      0x01\n        /* \"#utility.yul\":7511:7519   */\n      dup6\n        /* \"#utility.yul\":7508:7523   */\n      gt\n        /* \"#utility.yul\":7500:8212   */\n      iszero\n      tag_269\n      jumpi\n        /* \"#utility.yul\":7616:7620   */\n      dup1\n        /* \"#utility.yul\":7611:7614   */\n      dup7\n        /* \"#utility.yul\":7607:7621   */\n      div\n        /* \"#utility.yul\":7601:7605   */\n      dup2\n        /* \"#utility.yul\":7598:7622   */\n      gt\n        /* \"#utility.yul\":7595:7645   */\n      iszero\n      tag_270\n      jumpi\n        /* \"#utility.yul\":7625:7643   */\n      tag_271\n      tag_151\n      jump\t// in\n    tag_271:\n        /* \"#utility.yul\":7595:7645   */\n    tag_270:\n        /* \"#utility.yul\":7675:7676   */\n      0x01\n        /* \"#utility.yul\":7665:7673   */\n      dup6\n        /* \"#utility.yul\":7661:7677   */\n      and\n        /* \"#utility.yul\":7658:8109   */\n      iszero\n      tag_272\n      jumpi\n        /* \"#utility.yul\":8090:8094   */\n      dup1\n        /* \"#utility.yul\":8083:8088   */\n      dup3\n        /* \"#utility.yul\":8079:8095   */\n      mul\n        /* \"#utility.yul\":8070:8095   */\n      swap2\n      pop\n        /* \"#utility.yul\":7658:8109   */\n    tag_272:\n        /* \"#utility.yul\":8140:8144   */\n      dup1\n        /* \"#utility.yul\":8134:8138   */\n      dup2\n        /* \"#utility.yul\":8130:8145   */\n      mul\n        /* \"#utility.yul\":8122:8145   */\n      swap1\n      pop\n        /* \"#utility.yul\":8170:8202   */\n      tag_273\n        /* \"#utility.yul\":8193:8201   */\n      dup6\n        /* \"#utility.yul\":8170:8202   */\n      tag_158\n      jump\t// in\n    tag_273:\n        /* \"#utility.yul\":8158:8202   */\n      swap5\n      pop\n        /* \"#utility.yul\":7500:8212   */\n      jump(tag_267)\n    tag_269:\n        /* \"#utility.yul\":7370:8218   */\n      swap5\n      pop\n      swap5\n      swap3\n      pop\n      pop\n      pop\n      jump\t// out\n        /* \"#utility.yul\":8224:9297   */\n    tag_160:\n        /* \"#utility.yul\":8278:8283   */\n      0x00\n        /* \"#utility.yul\":8469:8477   */\n      dup3\n        /* \"#utility.yul\":8459:8499   */\n      tag_275\n      jumpi\n        /* \"#utility.yul\":8490:8491   */\n      0x01\n        /* \"#utility.yul\":8481:8491   */\n      swap1\n      pop\n        /* \"#utility.yul\":8492:8497   */\n      jump(tag_274)\n        /* \"#utility.yul\":8459:8499   */\n    tag_275:\n        /* \"#utility.yul\":8518:8522   */\n      dup2\n        /* \"#utility.yul\":8508:8544   */\n      tag_276\n      jumpi\n        /* \"#utility.yul\":8535:8536   */\n      0x00\n        /* \"#utility.yul\":8526:8536   */\n      swap1\n      pop\n        /* \"#utility.yul\":8537:8542   */\n      jump(tag_274)\n        /* \"#utility.yul\":8508:8544   */\n    tag_276:\n        /* \"#utility.yul\":8604:8608   */\n      dup2\n        /* \"#utility.yul\":8652:8653   */\n      0x01\n        /* \"#utility.yul\":8647:8674   */\n      dup2\n      eq\n      tag_278\n      jumpi\n        /* \"#utility.yul\":8688:8689   */\n      0x02\n        /* \"#utility.yul\":8683:8874   */\n      dup2\n      eq\n      tag_279\n      jumpi\n        /* \"#utility.yul\":8597:8874   */\n      jump(tag_277)\n        /* \"#utility.yul\":8647:8674   */\n    tag_278:\n        /* \"#utility.yul\":8665:8666   */\n      0x01\n        /* \"#utility.yul\":8656:8666   */\n      swap2\n      pop\n        /* \"#utility.yul\":8667:8672   */\n      pop\n      jump(tag_274)\n        /* \"#utility.yul\":8683:8874   */\n    tag_279:\n        /* \"#utility.yul\":8728:8731   */\n      0xff\n        /* \"#utility.yul\":8718:8726   */\n      dup5\n        /* \"#utility.yul\":8715:8732   */\n      gt\n        /* \"#utility.yul\":8712:8755   */\n      iszero\n      tag_280\n      jumpi\n        /* \"#utility.yul\":8735:8753   */\n      tag_281\n      tag_151\n      jump\t// in\n    tag_281:\n        /* \"#utility.yul\":8712:8755   */\n    tag_280:\n        /* \"#utility.yul\":8784:8792   */\n      dup4\n        /* \"#utility.yul\":8781:8782   */\n      0x02\n        /* \"#utility.yul\":8777:8793   */\n      exp\n        /* \"#utility.yul\":8768:8793   */\n      swap2\n      pop\n        /* \"#utility.yul\":8819:8822   */\n      dup5\n        /* \"#utility.yul\":8812:8817   */\n      dup3\n        /* \"#utility.yul\":8809:8823   */\n      gt\n        /* \"#utility.yul\":8806:8846   */\n      iszero\n      tag_282\n      jumpi\n        /* \"#utility.yul\":8826:8844   */\n      tag_283\n      tag_151\n      jump\t// in\n    tag_283:\n        /* \"#utility.yul\":8806:8846   */\n    tag_282:\n        /* \"#utility.yul\":8859:8864   */\n      pop\n      jump(tag_274)\n        /* \"#utility.yul\":8597:8874   */\n    tag_277:\n      pop\n        /* \"#utility.yul\":8983:8985   */\n      0x20\n        /* \"#utility.yul\":8973:8981   */\n      dup4\n        /* \"#utility.yul\":8970:8986   */\n      lt\n        /* \"#utility.yul\":8964:8967   */\n      0x0133\n        /* \"#utility.yul\":8958:8962   */\n      dup4\n        /* \"#utility.yul\":8955:8968   */\n      lt\n        /* \"#utility.yul\":8951:8987   */\n      and\n        /* \"#utility.yul\":8933:8935   */\n      0x4e\n        /* \"#utility.yul\":8923:8931   */\n      dup5\n        /* \"#utility.yul\":8920:8936   */\n      lt\n        /* \"#utility.yul\":8915:8917   */\n      0x0b\n        /* \"#utility.yul\":8909:8913   */\n      dup5\n        /* \"#utility.yul\":8906:8918   */\n      lt\n        /* \"#utility.yul\":8902:8937   */\n      and\n        /* \"#utility.yul\":8886:8997   */\n      or\n        /* \"#utility.yul\":8883:9129   */\n      iszero\n      tag_284\n      jumpi\n        /* \"#utility.yul\":9039:9047   */\n      dup3\n        /* \"#utility.yul\":9033:9037   */\n      dup3\n        /* \"#utility.yul\":9029:9048   */\n      exp\n        /* \"#utility.yul\":9020:9048   */\n      swap1\n      pop\n        /* \"#utility.yul\":9074:9077   */\n      dup4\n        /* \"#utility.yul\":9067:9072   */\n      dup2\n        /* \"#utility.yul\":9064:9078   */\n      gt\n        /* \"#utility.yul\":9061:9101   */\n      iszero\n      tag_285\n      jumpi\n        /* \"#utility.yul\":9081:9099   */\n      tag_286\n      tag_151\n      jump\t// in\n    tag_286:\n        /* \"#utility.yul\":9061:9101   */\n    tag_285:\n        /* \"#utility.yul\":9114:9119   */\n      jump(tag_274)\n        /* \"#utility.yul\":8883:9129   */\n    tag_284:\n        /* \"#utility.yul\":9154:9196   */\n      tag_287\n        /* \"#utility.yul\":9192:9195   */\n      dup5\n        /* \"#utility.yul\":9182:9190   */\n      dup5\n        /* \"#utility.yul\":9176:9180   */\n      dup5\n        /* \"#utility.yul\":9173:9174   */\n      0x01\n        /* \"#utility.yul\":9154:9196   */\n      tag_159\n      jump\t// in\n    tag_287:\n        /* \"#utility.yul\":9139:9196   */\n      swap3\n      pop\n      swap1\n      pop\n        /* \"#utility.yul\":9228:9232   */\n      dup2\n        /* \"#utility.yul\":9223:9226   */\n      dup5\n        /* \"#utility.yul\":9219:9233   */\n      div\n        /* \"#utility.yul\":9212:9217   */\n      dup2\n        /* \"#utility.yul\":9209:9234   */\n      gt\n        /* \"#utility.yul\":9206:9257   */\n      iszero\n      tag_288\n      jumpi\n        /* \"#utility.yul\":9237:9255   */\n      tag_289\n      tag_151\n      jump\t// in\n    tag_289:\n        /* \"#utility.yul\":9206:9257   */\n    tag_288:\n        /* \"#utility.yul\":9286:9290   */\n      dup2\n        /* \"#utility.yul\":9279:9284   */\n      dup2\n        /* \"#utility.yul\":9275:9291   */\n      mul\n        /* \"#utility.yul\":9266:9291   */\n      swap1\n      pop\n        /* \"#utility.yul\":8224:9297   */\n    tag_274:\n      swap4\n      swap3\n      pop\n      pop\n      pop\n      jump\t// out\n        /* \"#utility.yul\":9303:9588   */\n    tag_72:\n        /* \"#utility.yul\":9363:9368   */\n      0x00\n        /* \"#utility.yul\":9387:9410   */\n      tag_291\n        /* \"#utility.yul\":9405:9409   */\n      dup3\n        /* \"#utility.yul\":9387:9410   */\n      tag_138\n      jump\t// in\n    tag_291:\n        /* \"#utility.yul\":9379:9410   */\n      swap2\n      pop\n        /* \"#utility.yul\":9431:9458   */\n      tag_292\n        /* \"#utility.yul\":9449:9457   */\n      dup4\n        /* \"#utility.yul\":9431:9458   */\n      tag_138\n      jump\t// in\n    tag_292:\n        /* \"#utility.yul\":9419:9458   */\n      swap3\n      pop\n        /* \"#utility.yul\":9477:9581   */\n      tag_293\n        /* \"#utility.yul\":9514:9580   */\n      0xffffffffffffffffffffffffffffffffffffffffffffffffffffffffffffffff\n        /* \"#utility.yul\":9504:9512   */\n      dup5\n        /* \"#utility.yul\":9498:9502   */\n      dup5\n        /* \"#utility.yul\":9477:9581   */\n      tag_160\n      jump\t// in\n    tag_293:\n        /* \"#utility.yul\":9468:9581   */\n      swap1\n      pop\n        /* \"#utility.yul\":9303:9588   */\n      swap3\n      swap2\n      pop\n      pop\n      jump\t// out\n        /* \"#utility.yul\":9594:9716   */\n    tag_161:\n        /* \"#utility.yul\":9667:9691   */\n      tag_295\n        /* \"#utility.yul\":9685:9690   */\n      dup2\n        /* \"#utility.yul\":9667:9691   */\n      tag_138\n      jump\t// in\n    tag_295:\n        /* \"#utility.yul\":9660:9665   */\n      dup2\n        /* \"#utility.yul\":9657:9692   */\n      eq\n        /* \"#utility.yul\":9647:9710   */\n      tag_296\n      jumpi\n        /* \"#utility.yul\":9706:9707   */\n      0x00\n        /* \"#utility.yul\":9703:9704   */\n      dup1\n        /* \"#utility.yul\":9696:9708   */\n      revert\n        /* \"#utility.yul\":9647:9710   */\n    tag_296:\n        /* \"#utility.yul\":9594:9716   */\n      pop\n      jump\t// out\n        /* \"#utility.yul\":9722:9865   */\n    tag_162:\n        /* \"#utility.yul\":9779:9784   */\n      0x00\n        /* \"#utility.yul\":9810:9816   */\n      dup2\n        /* \"#utility.yul\":9804:9817   */\n      mload\n        /* \"#utility.yul\":9795:9817   */\n      swap1\n      pop\n        /* \"#utility.yul\":9826:9859   */\n      tag_298\n        /* \"#utility.yul\":9853:9858   */\n      dup2\n        /* \"#utility.yul\":9826:9859   */\n      tag_161\n      jump\t// in\n    tag_298:\n        /* \"#utility.yul\":9722:9865   */\n      swap3\n      swap2\n      pop\n      pop\n      jump\t// out\n        /* \"#utility.yul\":9871:10222   */\n    tag_77:\n        /* \"#utility.yul\":9941:9947   */\n      0x00\n        /* \"#utility.yul\":9990:9992   */\n      0x20\n        /* \"#utility.yul\":9978:9987   */\n      dup3\n        /* \"#utility.yul\":9969:9976   */\n      dup5\n        /* \"#utility.yul\":9965:9988   */\n      sub\n        /* \"#utility.yul\":9961:9993   */\n      slt\n        /* \"#utility.yul\":9958:10077   */\n      iszero\n      tag_300\n      jumpi\n        /* \"#utility.yul\":9996:10075   */\n      tag_301\n      tag_133\n      jump\t// in\n    tag_301:\n        /* \"#utility.yul\":9958:10077   */\n    tag_300:\n        /* \"#utility.yul\":10116:10117   */\n      0x00\n        /* \"#utility.yul\":10141:10205   */\n      tag_302\n        /* \"#utility.yul\":10197:10204   */\n      dup5\n        /* \"#utility.yul\":10188:10194   */\n      dup3\n        /* \"#utility.yul\":10177:10186   */\n      dup6\n        /* \"#utility.yul\":10173:10195   */\n      add\n        /* \"#utility.yul\":10141:10205   */\n      tag_162\n      jump\t// in\n    tag_302:\n        /* \"#utility.yul\":10131:10205   */\n      swap2\n      pop\n        /* \"#utility.yul\":10087:10215   */\n      pop\n        /* \"#utility.yul\":9871:10222   */\n      swap3\n      swap2\n      pop\n      pop\n      jump\t// out\n        /* \"#utility.yul\":10228:10560   */\n    tag_83:\n        /* \"#utility.yul\":10349:10353   */\n      0x00\n        /* \"#utility.yul\":10387:10389   */\n      0x40\n        /* \"#utility.yul\":10376:10385   */\n      dup3\n        /* \"#utility.yul\":10372:10390   */\n      add\n        /* \"#utility.yul\":10364:10390   */\n      swap1\n      pop\n        /* \"#utility.yul\":10400:10471   */\n      tag_304\n        /* \"#utility.yul\":10468:10469   */\n      0x00\n        /* \"#utility.yul\":10457:10466   */\n      dup4\n        /* \"#utility.yul\":10453:10470   */\n      add\n        /* \"#utility.yul\":10444:10450   */\n      dup6\n        /* \"#utility.yul\":10400:10471   */\n      tag_145\n      jump\t// in\n    tag_304:\n        /* \"#utility.yul\":10481:10553   */\n      tag_305\n        /* \"#utility.yul\":10549:10551   */\n      0x20\n        /* \"#utility.yul\":10538:10547   */\n      dup4\n        /* \"#utility.yul\":10534:10552   */\n      add\n        /* \"#utility.yul\":10525:10531   */\n      dup5\n        /* \"#utility.yul\":10481:10553   */\n      tag_139\n      jump\t// in\n    tag_305:\n        /* \"#utility.yul\":10228:10560   */\n      swap4\n      swap3\n      pop\n      pop\n      pop\n      jump\t// out\n        /* \"#utility.yul\":10566:10656   */\n    tag_163:\n        /* \"#utility.yul\":10600:10607   */\n      0x00\n        /* \"#utility.yul\":10643:10648   */\n      dup2\n        /* \"#utility.yul\":10636:10649   */\n      iszero\n        /* \"#utility.yul\":10629:10650   */\n      iszero\n        /* \"#utility.yul\":10618:10650   */\n      swap1\n      pop\n        /* \"#utility.yul\":10566:10656   */\n      swap2\n      swap1\n      pop\n      jump\t// out\n        /* \"#utility.yul\":10662:10778   */\n    tag_164:\n        /* \"#utility.yul\":10732:10753   */\n      tag_308\n        /* \"#utility.yul\":10747:10752   */\n      dup2\n        /* \"#utility.yul\":10732:10753   */\n      tag_163\n      jump\t// in\n    tag_308:\n        /* \"#utility.yul\":10725:10730   */\n      dup2\n        /* \"#utility.yul\":10722:10754   */\n      eq\n        /* \"#utility.yul\":10712:10772   */\n      tag_309\n      jumpi\n        /* \"#utility.yul\":10768:10769   */\n      0x00\n        /* \"#utility.yul\":10765:10766   */\n      dup1\n        /* \"#utility.yul\":10758:10770   */\n      revert\n        /* \"#utility.yul\":10712:10772   */\n    tag_309:\n        /* \"#utility.yul\":10662:10778   */\n      pop\n      jump\t// out\n        /* \"#utility.yul\":10784:10921   */\n    tag_165:\n        /* \"#utility.yul\":10838:10843   */\n      0x00\n        /* \"#utility.yul\":10869:10875   */\n      dup2\n        /* \"#utility.yul\":10863:10876   */\n      mload\n        /* \"#utility.yul\":10854:10876   */\n      swap1\n      pop\n        /* \"#utility.yul\":10885:10915   */\n      tag_311\n        /* \"#utility.yul\":10909:10914   */\n      dup2\n        /* \"#utility.yul\":10885:10915   */\n      tag_164\n      jump\t// in\n    tag_311:\n        /* \"#utility.yul\":10784:10921   */\n      swap3\n      swap2\n      pop\n      pop\n      jump\t// out\n        /* \"#utility.yul\":10927:11272   */\n    tag_87:\n        /* \"#utility.yul\":10994:11000   */\n      0x00\n        /* \"#utility.yul\":11043:11045   */\n      0x20\n        /* \"#utility.yul\":11031:11040   */\n      dup3\n        /* \"#utility.yul\":11022:11029   */\n      dup5\n        /* \"#utility.yul\":11018:11041   */\n      sub\n        /* \"#utility.yul\":11014:11046   */\n      slt\n        /* \"#utility.yul\":11011:11130   */\n      iszero\n      tag_313\n      jumpi\n        /* \"#utility.yul\":11049:11128   */\n      tag_314\n      tag_133\n      jump\t// in\n    tag_314:\n        /* \"#utility.yul\":11011:11130   */\n    tag_313:\n        /* \"#utility.yul\":11169:11170   */\n      0x00\n        /* \"#utility.yul\":11194:11255   */\n      tag_315\n        /* \"#utility.yul\":11247:11254   */\n      dup5\n        /* \"#utility.yul\":11238:11244   */\n      dup3\n        /* \"#utility.yul\":11227:11236   */\n      dup6\n        /* \"#utility.yul\":11223:11245   */\n      add\n        /* \"#utility.yul\":11194:11255   */\n      tag_165\n      jump\t// in\n    tag_315:\n        /* \"#utility.yul\":11184:11255   */\n      swap2\n      pop\n        /* \"#utility.yul\":11140:11265   */\n      pop\n        /* \"#utility.yul\":10927:11272   */\n      swap3\n      swap2\n      pop\n      pop\n      jump\t// out\n        /* \"#utility.yul\":11278:11446   */\n    tag_166:\n        /* \"#utility.yul\":11418:11438   */\n      0x5850207472616e73666572206661696c65640000000000000000000000000000\n        /* \"#utility.yul\":11414:11415   */\n      0x00\n        /* \"#utility.yul\":11406:11412   */\n      dup3\n        /* \"#utility.yul\":11402:11416   */\n      add\n        /* \"#utility.yul\":11395:11439   */\n      mstore\n        /* \"#utility.yul\":11278:11446   */\n      pop\n      jump\t// out\n        /* \"#utility.yul\":11452:11818   */\n    tag_167:\n        /* \"#utility.yul\":11594:11597   */\n      0x00\n        /* \"#utility.yul\":11615:11682   */\n      tag_318\n        /* \"#utility.yul\":11679:11681   */\n      0x12\n        /* \"#utility.yul\":11674:11677   */\n      dup4\n        /* \"#utility.yul\":11615:11682   */\n      tag_153\n      jump\t// in\n    tag_318:\n        /* \"#utility.yul\":11608:11682   */\n      swap2\n      pop\n        /* \"#utility.yul\":11691:11784   */\n      tag_319\n        /* \"#utility.yul\":11780:11783   */\n      dup3\n        /* \"#utility.yul\":11691:11784   */\n      tag_166\n      jump\t// in\n    tag_319:\n        /* \"#utility.yul\":11809:11811   */\n      0x20\n        /* \"#utility.yul\":11804:11807   */\n      dup3\n        /* \"#utility.yul\":11800:11812   */\n      add\n        /* \"#utility.yul\":11793:11812   */\n      swap1\n      pop\n        /* \"#utility.yul\":11452:11818   */\n      swap2\n      swap1\n      pop\n      jump\t// out\n        /* \"#utility.yul\":11824:12243   */\n    tag_90:\n        /* \"#utility.yul\":11990:11994   */\n      0x00\n        /* \"#utility.yul\":12028:12030   */\n      0x20\n        /* \"#utility.yul\":12017:12026   */\n      dup3\n        /* \"#utility.yul\":12013:12031   */\n      add\n        /* \"#utility.yul\":12005:12031   */\n      swap1\n      pop\n        /* \"#utility.yul\":12077:12086   */\n      dup2\n        /* \"#utility.yul\":12071:12075   */\n      dup2\n        /* \"#utility.yul\":12067:12087   */\n      sub\n        /* \"#utility.yul\":12063:12064   */\n      0x00\n        /* \"#utility.yul\":12052:12061   */\n      dup4\n        /* \"#utility.yul\":12048:12065   */\n      add\n        /* \"#utility.yul\":12041:12088   */\n      mstore\n        /* \"#utility.yul\":12105:12236   */\n      tag_321\n        /* \"#utility.yul\":12231:12235   */\n      dup2\n        /* \"#utility.yul\":12105:12236   */\n      tag_167\n      jump\t// in\n    tag_321:\n        /* \"#utility.yul\":12097:12236   */\n      swap1\n      pop\n        /* \"#utility.yul\":11824:12243   */\n      swap2\n      swap1\n      pop\n      jump\t// out\n        /* \"#utility.yul\":12249:12691   */\n    tag_92:\n        /* \"#utility.yul\":12398:12402   */\n      0x00\n        /* \"#utility.yul\":12436:12438   */\n      0x60\n        /* \"#utility.yul\":12425:12434   */\n      dup3\n        /* \"#utility.yul\":12421:12439   */\n      add\n        /* \"#utility.yul\":12413:12439   */\n      swap1\n      pop\n        /* \"#utility.yul\":12449:12520   */\n      tag_323\n        /* \"#utility.yul\":12517:12518   */\n      0x00\n        /* \"#utility.yul\":12506:12515   */\n      dup4\n        /* \"#utility.yul\":12502:12519   */\n      add\n        /* \"#utility.yul\":12493:12499   */\n      dup7\n        /* \"#utility.yul\":12449:12520   */\n      tag_145\n      jump\t// in\n    tag_323:\n        /* \"#utility.yul\":12530:12602   */\n      tag_324\n        /* \"#utility.yul\":12598:12600   */\n      0x20\n        /* \"#utility.yul\":12587:12596   */\n      dup4\n        /* \"#utility.yul\":12583:12601   */\n      add\n        /* \"#utility.yul\":12574:12580   */\n      dup6\n        /* \"#utility.yul\":12530:12602   */\n      tag_144\n      jump\t// in\n    tag_324:\n        /* \"#utility.yul\":12612:12684   */\n      tag_325\n        /* \"#utility.yul\":12680:12682   */\n      0x40\n        /* \"#utility.yul\":12669:12678   */\n      dup4\n        /* \"#utility.yul\":12665:12683   */\n      add\n        /* \"#utility.yul\":12656:12662   */\n      dup5\n        /* \"#utility.yul\":12612:12684   */\n      tag_139\n      jump\t// in\n    tag_325:\n        /* \"#utility.yul\":12249:12691   */\n      swap5\n      swap4\n      pop\n      pop\n      pop\n      pop\n      jump\t// out\n        /* \"#utility.yul\":12697:13107   */\n    tag_97:\n        /* \"#utility.yul\":12737:12744   */\n      0x00\n        /* \"#utility.yul\":12760:12780   */\n      tag_327\n        /* \"#utility.yul\":12778:12779   */\n      dup3\n        /* \"#utility.yul\":12760:12780   */\n      tag_138\n      jump\t// in\n    tag_327:\n        /* \"#utility.yul\":12755:12780   */\n      swap2\n      pop\n        /* \"#utility.yul\":12794:12814   */\n      tag_328\n        /* \"#utility.yul\":12812:12813   */\n      dup4\n        /* \"#utility.yul\":12794:12814   */\n      tag_138\n      jump\t// in\n    tag_328:\n        /* \"#utility.yul\":12789:12814   */\n      swap3\n      pop\n        /* \"#utility.yul\":12849:12850   */\n      dup3\n        /* \"#utility.yul\":12846:12847   */\n      dup3\n        /* \"#utility.yul\":12842:12851   */\n      mul\n        /* \"#utility.yul\":12871:12901   */\n      tag_329\n        /* \"#utility.yul\":12889:12900   */\n      dup2\n        /* \"#utility.yul\":12871:12901   */\n      tag_138\n      jump\t// in\n    tag_329:\n        /* \"#utility.yul\":12860:12901   */\n      swap2\n      pop\n        /* \"#utility.yul\":13050:13051   */\n      dup3\n        /* \"#utility.yul\":13041:13048   */\n      dup3\n        /* \"#utility.yul\":13037:13052   */\n      div\n        /* \"#utility.yul\":13034:13035   */\n      dup5\n        /* \"#utility.yul\":13031:13053   */\n      eq\n        /* \"#utility.yul\":13011:13012   */\n      dup4\n        /* \"#utility.yul\":13004:13013   */\n      iszero\n        /* \"#utility.yul\":12984:13067   */\n      or\n        /* \"#utility.yul\":12961:13100   */\n      tag_330\n      jumpi\n        /* \"#utility.yul\":13080:13098   */\n      tag_331\n      tag_151\n      jump\t// in\n    tag_331:\n        /* \"#utility.yul\":12961:13100   */\n    tag_330:\n        /* \"#utility.yul\":12745:13107   */\n      pop\n        /* \"#utility.yul\":12697:13107   */\n      swap3\n      swap2\n      pop\n      pop\n      jump\t// out\n        /* \"#utility.yul\":13113:13307   */\n    tag_99:\n        /* \"#utility.yul\":13153:13157   */\n      0x00\n        /* \"#utility.yul\":13173:13193   */\n      tag_333\n        /* \"#utility.yul\":13191:13192   */\n      dup3\n        /* \"#utility.yul\":13173:13193   */\n      tag_138\n      jump\t// in\n    tag_333:\n        /* \"#utility.yul\":13168:13193   */\n      swap2\n      pop\n        /* \"#utility.yul\":13207:13227   */\n      tag_334\n        /* \"#utility.yul\":13225:13226   */\n      dup4\n        /* \"#utility.yul\":13207:13227   */\n      tag_138\n      jump\t// in\n    tag_334:\n        /* \"#utility.yul\":13202:13227   */\n      swap3\n      pop\n        /* \"#utility.yul\":13251:13252   */\n      dup3\n        /* \"#utility.yul\":13248:13249   */\n      dup3\n        /* \"#utility.yul\":13244:13253   */\n      sub\n        /* \"#utility.yul\":13236:13253   */\n      swap1\n      pop\n        /* \"#utility.yul\":13275:13276   */\n      dup2\n        /* \"#utility.yul\":13269:13273   */\n      dup2\n        /* \"#utility.yul\":13266:13277   */\n      gt\n        /* \"#utility.yul\":13263:13300   */\n      iszero\n      tag_335\n      jumpi\n        /* \"#utility.yul\":13280:13298   */\n      tag_336\n      tag_151\n      jump\t// in\n    tag_336:\n        /* \"#utility.yul\":13263:13300   */\n    tag_335:\n        /* \"#utility.yul\":13113:13307   */\n      swap3\n      swap2\n      pop\n      pop\n      jump\t// out\n        /* \"#utility.yul\":13313:13392   */\n    tag_168:\n        /* \"#utility.yul\":13352:13359   */\n      0x00\n        /* \"#utility.yul\":13381:13386   */\n      dup2\n        /* \"#utility.yul\":13370:13386   */\n      swap1\n      pop\n        /* \"#utility.yul\":13313:13392   */\n      swap2\n      swap1\n      pop\n      jump\t// out\n        /* \"#utility.yul\":13398:13555   */\n    tag_169:\n        /* \"#utility.yul\":13503:13548   */\n      tag_339\n        /* \"#utility.yul\":13523:13547   */\n      tag_340\n        /* \"#utility.yul\":13541:13546   */\n      dup3\n        /* \"#utility.yul\":13523:13547   */\n      tag_138\n      jump\t// in\n    tag_340:\n        /* \"#utility.yul\":13503:13548   */\n      tag_168\n      jump\t// in\n    tag_339:\n        /* \"#utility.yul\":13498:13501   */\n      dup3\n        /* \"#utility.yul\":13491:13549   */\n      mstore\n        /* \"#utility.yul\":13398:13555   */\n      pop\n      pop\n      jump\t// out\n        /* \"#utility.yul\":13561:13640   */\n    tag_170:\n        /* \"#utility.yul\":13600:13607   */\n      0x00\n        /* \"#utility.yul\":13629:13634   */\n      dup2\n        /* \"#utility.yul\":13618:13634   */\n      swap1\n      pop\n        /* \"#utility.yul\":13561:13640   */\n      swap2\n      swap1\n      pop\n      jump\t// out\n        /* \"#utility.yul\":13646:13803   */\n    tag_171:\n        /* \"#utility.yul\":13751:13796   */\n      tag_343\n        /* \"#utility.yul\":13771:13795   */\n      tag_344\n        /* \"#utility.yul\":13789:13794   */\n      dup3\n        /* \"#utility.yul\":13771:13795   */\n      tag_135\n      jump\t// in\n    tag_344:\n        /* \"#utility.yul\":13751:13796   */\n      tag_170\n      jump\t// in\n    tag_343:\n        /* \"#utility.yul\":13746:13749   */\n      dup3\n        /* \"#utility.yul\":13739:13797   */\n      mstore\n        /* \"#utility.yul\":13646:13803   */\n      pop\n      pop\n      jump\t// out\n        /* \"#utility.yul\":13809:13903   */\n    tag_172:\n        /* \"#utility.yul\":13842:13850   */\n      0x00\n        /* \"#utility.yul\":13890:13895   */\n      dup2\n        /* \"#utility.yul\":13886:13888   */\n      0x60\n        /* \"#utility.yul\":13882:13896   */\n      shl\n        /* \"#utility.yul\":13861:13896   */\n      swap1\n      pop\n        /* \"#utility.yul\":13809:13903   */\n      swap2\n      swap1\n      pop\n      jump\t// out\n        /* \"#utility.yul\":13909:14003   */\n    tag_173:\n        /* \"#utility.yul\":13948:13955   */\n      0x00\n        /* \"#utility.yul\":13977:13997   */\n      tag_347\n        /* \"#utility.yul\":13991:13996   */\n      dup3\n        /* \"#utility.yul\":13977:13997   */\n      tag_172\n      jump\t// in\n    tag_347:\n        /* \"#utility.yul\":13966:13997   */\n      swap1\n      pop\n        /* \"#utility.yul\":13909:14003   */\n      swap2\n      swap1\n      pop\n      jump\t// out\n        /* \"#utility.yul\":14009:14109   */\n    tag_174:\n        /* \"#utility.yul\":14048:14055   */\n      0x00\n        /* \"#utility.yul\":14077:14103   */\n      tag_349\n        /* \"#utility.yul\":14097:14102   */\n      dup3\n        /* \"#utility.yul\":14077:14103   */\n      tag_173\n      jump\t// in\n    tag_349:\n        /* \"#utility.yul\":14066:14103   */\n      swap1\n      pop\n        /* \"#utility.yul\":14009:14109   */\n      swap2\n      swap1\n      pop\n      jump\t// out\n        /* \"#utility.yul\":14115:14272   */\n    tag_175:\n        /* \"#utility.yul\":14220:14265   */\n      tag_351\n        /* \"#utility.yul\":14240:14264   */\n      tag_352\n        /* \"#utility.yul\":14258:14263   */\n      dup3\n        /* \"#utility.yul\":14240:14264   */\n      tag_141\n      jump\t// in\n    tag_352:\n        /* \"#utility.yul\":14220:14265   */\n      tag_174\n      jump\t// in\n    tag_351:\n        /* \"#utility.yul\":14215:14218   */\n      dup3\n        /* \"#utility.yul\":14208:14266   */\n      mstore\n        /* \"#utility.yul\":14115:14272   */\n      pop\n      pop\n      jump\t// out\n        /* \"#utility.yul\":14278:14816   */\n    tag_103:\n        /* \"#utility.yul\":14446:14449   */\n      0x00\n        /* \"#utility.yul\":14461:14536   */\n      tag_354\n        /* \"#utility.yul\":14532:14535   */\n      dup3\n        /* \"#utility.yul\":14523:14529   */\n      dup7\n        /* \"#utility.yul\":14461:14536   */\n      tag_169\n      jump\t// in\n    tag_354:\n        /* \"#utility.yul\":14561:14563   */\n      0x20\n        /* \"#utility.yul\":14556:14559   */\n      dup3\n        /* \"#utility.yul\":14552:14564   */\n      add\n        /* \"#utility.yul\":14545:14564   */\n      swap2\n      pop\n        /* \"#utility.yul\":14574:14649   */\n      tag_355\n        /* \"#utility.yul\":14645:14648   */\n      dup3\n        /* \"#utility.yul\":14636:14642   */\n      dup6\n        /* \"#utility.yul\":14574:14649   */\n      tag_171\n      jump\t// in\n    tag_355:\n        /* \"#utility.yul\":14674:14676   */\n      0x20\n        /* \"#utility.yul\":14669:14672   */\n      dup3\n        /* \"#utility.yul\":14665:14677   */\n      add\n        /* \"#utility.yul\":14658:14677   */\n      swap2\n      pop\n        /* \"#utility.yul\":14687:14762   */\n      tag_356\n        /* \"#utility.yul\":14758:14761   */\n      dup3\n        /* \"#utility.yul\":14749:14755   */\n      dup5\n        /* \"#utility.yul\":14687:14762   */\n      tag_175\n      jump\t// in\n    tag_356:\n        /* \"#utility.yul\":14787:14789   */\n      0x14\n        /* \"#utility.yul\":14782:14785   */\n      dup3\n        /* \"#utility.yul\":14778:14790   */\n      add\n        /* \"#utility.yul\":14771:14790   */\n      swap2\n      pop\n        /* \"#utility.yul\":14807:14810   */\n      dup2\n        /* \"#utility.yul\":14800:14810   */\n      swap1\n      pop\n        /* \"#utility.yul\":14278:14816   */\n      swap5\n      swap4\n      pop\n      pop\n      pop\n      pop\n      jump\t// out\n        /* \"#utility.yul\":14822:14996   */\n    tag_176:\n        /* \"#utility.yul\":14962:14988   */\n      0x4e6f20585020746f6b656e7320746f2077697468647261770000000000000000\n        /* \"#utility.yul\":14958:14959   */\n      0x00\n        /* \"#utility.yul\":14950:14956   */\n      dup3\n        /* \"#utility.yul\":14946:14960   */\n      add\n        /* \"#utility.yul\":14939:14989   */\n      mstore\n        /* \"#utility.yul\":14822:14996   */\n      pop\n      jump\t// out\n        /* \"#utility.yul\":15002:15368   */\n    tag_177:\n        /* \"#utility.yul\":15144:15147   */\n      0x00\n        /* \"#utility.yul\":15165:15232   */\n      tag_359\n        /* \"#utility.yul\":15229:15231   */\n      0x18\n        /* \"#utility.yul\":15224:15227   */\n      dup4\n        /* \"#utility.yul\":15165:15232   */\n      tag_153\n      jump\t// in\n    tag_359:\n        /* \"#utility.yul\":15158:15232   */\n      swap2\n      pop\n        /* \"#utility.yul\":15241:15334   */\n      tag_360\n        /* \"#utility.yul\":15330:15333   */\n      dup3\n        /* \"#utility.yul\":15241:15334   */\n      tag_176\n      jump\t// in\n    tag_360:\n        /* \"#utility.yul\":15359:15361   */\n      0x20\n        /* \"#utility.yul\":15354:15357   */\n      dup3\n        /* \"#utility.yul\":15350:15362   */\n      add\n        /* \"#utility.yul\":15343:15362   */\n      swap1\n      pop\n        /* \"#utility.yul\":15002:15368   */\n      swap2\n      swap1\n      pop\n      jump\t// out\n        /* \"#utility.yul\":15374:15793   */\n    tag_118:\n        /* \"#utility.yul\":15540:15544   */\n      0x00\n        /* \"#utility.yul\":15578:15580   */\n      0x20\n        /* \"#utility.yul\":15567:15576   */\n      dup3\n        /* \"#utility.yul\":15563:15581   */\n      add\n        /* \"#utility.yul\":15555:15581   */\n      swap1\n      pop\n        /* \"#utility.yul\":15627:15636   */\n      dup2\n        /* \"#utility.yul\":15621:15625   */\n      dup2\n        /* \"#utility.yul\":15617:15637   */\n      sub\n        /* \"#utility.yul\":15613:15614   */\n      0x00\n        /* \"#utility.yul\":15602:15611   */\n      dup4\n        /* \"#utility.yul\":15598:15615   */\n      add\n        /* \"#utility.yul\":15591:15638   */\n      mstore\n        /* \"#utility.yul\":15655:15786   */\n      tag_362\n        /* \"#utility.yul\":15781:15785   */\n      dup2\n        /* \"#utility.yul\":15655:15786   */\n      tag_177\n      jump\t// in\n    tag_362:\n        /* \"#utility.yul\":15647:15786   */\n      swap1\n      pop\n        /* \"#utility.yul\":15374:15793   */\n      swap2\n      swap1\n      pop\n      jump\t// out\n        /* \"#utility.yul\":15799:15970   */\n    tag_178:\n        /* \"#utility.yul\":15939:15962   */\n      0x496e76616c696420746f6b656e20616464726573730000000000000000000000\n        /* \"#utility.yul\":15935:15936   */\n      0x00\n        /* \"#utility.yul\":15927:15933   */\n      dup3\n        /* \"#utility.yul\":15923:15937   */\n      add\n        /* \"#utility.yul\":15916:15963   */\n      mstore\n        /* \"#utility.yul\":15799:15970   */\n      pop\n      jump\t// out\n        /* \"#utility.yul\":15976:16342   */\n    tag_179:\n        /* \"#utility.yul\":16118:16121   */\n      0x00\n        /* \"#utility.yul\":16139:16206   */\n      tag_365\n        /* \"#utility.yul\":16203:16205   */\n      0x15\n        /* \"#utility.yul\":16198:16201   */\n      dup4\n        /* \"#utility.yul\":16139:16206   */\n      tag_153\n      jump\t// in\n    tag_365:\n        /* \"#utility.yul\":16132:16206   */\n      swap2\n      pop\n        /* \"#utility.yul\":16215:16308   */\n      tag_366\n        /* \"#utility.yul\":16304:16307   */\n      dup3\n        /* \"#utility.yul\":16215:16308   */\n      tag_178\n      jump\t// in\n    tag_366:\n        /* \"#utility.yul\":16333:16335   */\n      0x20\n        /* \"#utility.yul\":16328:16331   */\n      dup3\n        /* \"#utility.yul\":16324:16336   */\n      add\n        /* \"#utility.yul\":16317:16336   */\n      swap1\n      pop\n        /* \"#utility.yul\":15976:16342   */\n      swap2\n      swap1\n      pop\n      jump\t// out\n        /* \"#utility.yul\":16348:16767   */\n    tag_131:\n        /* \"#utility.yul\":16514:16518   */\n      0x00\n        /* \"#utility.yul\":16552:16554   */\n      0x20\n        /* \"#utility.yul\":16541:16550   */\n      dup3\n        /* \"#utility.yul\":16537:16555   */\n      add\n        /* \"#utility.yul\":16529:16555   */\n      swap1\n      pop\n        /* \"#utility.yul\":16601:16610   */\n      dup2\n        /* \"#utility.yul\":16595:16599   */\n      dup2\n        /* \"#utility.yul\":16591:16611   */\n      sub\n        /* \"#utility.yul\":16587:16588   */\n      0x00\n        /* \"#utility.yul\":16576:16585   */\n      dup4\n        /* \"#utility.yul\":16572:16589   */\n      add\n        /* \"#utility.yul\":16565:16612   */\n      mstore\n        /* \"#utility.yul\":16629:16760   */\n      tag_368\n        /* \"#utility.yul\":16755:16759   */\n      dup2\n        /* \"#utility.yul\":16629:16760   */\n      tag_179\n      jump\t// in\n    tag_368:\n        /* \"#utility.yul\":16621:16760   */\n      swap1\n      pop\n        /* \"#utility.yul\":16348:16767   */\n      swap2\n      swap1\n      pop\n      jump\t// out\n\n    auxdata: 0xa2646970667358221220a074bd4ba34c1c18dabdc5a2c074054564bc5b4ba47c3b92bb95452b4d6f25db64736f6c634300081a0033\n}\n",
				"bytecode": {
					"linkReferences": {},
					"object": "60806040527fffffffffffffffffffffffffffffffffffffffffffffffffffffffffffffffff5f1b600355348015610035575f80fd5b506040516116e73803806116e78339818101604052810190610057919061013a565b335f806101000a81548173ffffffffffffffffffffffffffffffffffffffff021916908373ffffffffffffffffffffffffffffffffffffffff1602179055508060045f6101000a81548173ffffffffffffffffffffffffffffffffffffffff021916908373ffffffffffffffffffffffffffffffffffffffff16021790555050610165565b5f80fd5b5f73ffffffffffffffffffffffffffffffffffffffff82169050919050565b5f610109826100e0565b9050919050565b610119816100ff565b8114610123575f80fd5b50565b5f8151905061013481610110565b92915050565b5f6020828403121561014f5761014e6100dc565b5b5f61015c84828501610126565b91505092915050565b611575806101725f395ff3fe608060405234801561000f575f80fd5b506004361061009b575f3560e01c80638da5cb5b116100645780638da5cb5b1461011d57806392d14ea01461013b578063ae5014b114610157578063bbd425df14610175578063f6b36551146101935761009b565b806249a5561461009f57806303feb273146100cf5780630fe5a9f7146100d95780631b7ef263146100e3578063598378f514610113575b5f80fd5b6100b960048036038101906100b49190610c72565b6101b1565b6040516100c69190610cb5565b60405180910390f35b6100d761020b565b005b6100e1610643565b005b6100fd60048036038101906100f89190610d28565b61080d565b60405161010a9190610d62565b60405180910390f35b61011b610822565b005b610125610a8a565b6040516101329190610d8a565b60405180910390f35b61015560048036038101906101509190610d28565b610aad565b005b61015f610beb565b60405161016c9190610dfe565b60405180910390f35b61017d610c10565b60405161018a9190610d8a565b60405180910390f35b61019b610c35565b6040516101a89190610d62565b60405180910390f35b5f80825f1c90505f8060ff90505b5f81106101f4575f816001901b8416036101f45781806101de90610e44565b92505080806101ec90610e8b565b9150506101bf565b506004816102029190610edf565b92505050919050565b5f8054906101000a900473ffffffffffffffffffffffffffffffffffffffff1673ffffffffffffffffffffffffffffffffffffffff163373ffffffffffffffffffffffffffffffffffffffff1614610298576040517f08c379a000000000000000000000000000000000000000000000000000000000815260040161028f90610f8f565b60405180910390fd5b5f73ffffffffffffffffffffffffffffffffffffffff1660025f9054906101000a900473ffffffffffffffffffffffffffffffffffffffff1673ffffffffffffffffffffffffffffffffffffffff1603610327576040517f08c379a000000000000000000000000000000000000000000000000000000000815260040161031e90610ff7565b60405180910390fd5b5f60025f9054906101000a900473ffffffffffffffffffffffffffffffffffffffff1690505f60035490505f61035c826101b1565b90505f60128261036c9190611015565b600a6103789190611177565b90505f60045f9054906101000a900473ffffffffffffffffffffffffffffffffffffffff1673ffffffffffffffffffffffffffffffffffffffff166370a08231306040518263ffffffff1660e01b81526004016103d59190610d8a565b602060405180830381865afa1580156103f0573d5f803e3d5ffd5b505050506040513d601f19601f8201168201806040525081019061041491906111eb565b90508082116104235781610425565b805b91505f821180156104365750818110155b156105175760045f9054906101000a900473ffffffffffffffffffffffffffffffffffffffff1673ffffffffffffffffffffffffffffffffffffffff1663a9059cbb86846040518363ffffffff1660e01b8152600401610497929190611216565b6020604051808303815f875af11580156104b3573d5f803e3d5ffd5b505050506040513d601f19601f820116820180604052508101906104d79190611272565b610516576040517f08c379a000000000000000000000000000000000000000000000000000000000815260040161050d906112e7565b60405180910390fd5b5b7f7adaf486fba2a50d6d287e224bef3941aa341ef4e72c70467a72a9f61e8d860685858460405161054a93929190611305565b60405180910390a17fffffffffffffffffffffffffffffffffffffffffffffffffffffffffffffffff5f1b6003819055505f60025f6101000a81548173ffffffffffffffffffffffffffffffffffffffff021916908373ffffffffffffffffffffffffffffffffffffffff1602179055505f5b61010081101561063b575f6008826105d5919061133a565b6001436105e2919061137b565b405f1c901c90505f801b60015f8373ffffffffffffffffffffffffffffffffffffffff1673ffffffffffffffffffffffffffffffffffffffff1681526020019081526020015f20819055505080806001019150506105bd565b505050505050565b5f3373ffffffffffffffffffffffffffffffffffffffff1690505f8160014361066c919061137b565b403360405160200161068093929190611433565b6040516020818303038152906040528051906020012090505f801b60015f3373ffffffffffffffffffffffffffffffffffffffff1673ffffffffffffffffffffffffffffffffffffffff1681526020019081526020015f20541480610721575060015f3373ffffffffffffffffffffffffffffffffffffffff1673ffffffffffffffffffffffffffffffffffffffff1681526020019081526020015f205481105b156107b7578060015f3373ffffffffffffffffffffffffffffffffffffffff1673ffffffffffffffffffffffffffffffffffffffff1681526020019081526020015f20819055503373ffffffffffffffffffffffffffffffffffffffff167fe0580e65e31c995b4cd3d5c8a911e89d31ef328be761a1ca2f35b795d00a152c826040516107ae9190610d62565b60405180910390a25b60035481101561080957806003819055503360025f6101000a81548173ffffffffffffffffffffffffffffffffffffffff021916908373ffffffffffffffffffffffffffffffffffffffff1602179055505b5050565b6001602052805f5260405f205f915090505481565b5f8054906101000a900473ffffffffffffffffffffffffffffffffffffffff1673ffffffffffffffffffffffffffffffffffffffff163373ffffffffffffffffffffffffffffffffffffffff16146108af576040517f08c379a00000000000000000000000000000000000000000000000000000000081526004016108a690610f8f565b60405180910390fd5b5f60045f9054906101000a900473ffffffffffffffffffffffffffffffffffffffff1673ffffffffffffffffffffffffffffffffffffffff166370a08231306040518263ffffffff1660e01b815260040161090a9190610d8a565b602060405180830381865afa158015610925573d5f803e3d5ffd5b505050506040513d601f19601f8201168201806040525081019061094991906111eb565b90505f811161098d576040517f08c379a0000000000000000000000000000000000000000000000000000000008152600401610984906114b9565b60405180910390fd5b60045f9054906101000a900473ffffffffffffffffffffffffffffffffffffffff1673ffffffffffffffffffffffffffffffffffffffff1663a9059cbb5f8054906101000a900473ffffffffffffffffffffffffffffffffffffffff16836040518363ffffffff1660e01b8152600401610a08929190611216565b6020604051808303815f875af1158015610a24573d5f803e3d5ffd5b505050506040513d601f19601f82011682018060405250810190610a489190611272565b610a87576040517f08c379a0000000000000000000000000000000000000000000000000000000008152600401610a7e906112e7565b60405180910390fd5b50565b5f8054906101000a900473ffffffffffffffffffffffffffffffffffffffff1681565b5f8054906101000a900473ffffffffffffffffffffffffffffffffffffffff1673ffffffffffffffffffffffffffffffffffffffff163373ffffffffffffffffffffffffffffffffffffffff1614610b3a576040517f08c379a0000000000000000000000000000000000000000000000000000000008152600401610b3190610f8f565b60405180910390fd5b5f73ffffffffffffffffffffffffffffffffffffffff168173ffffffffffffffffffffffffffffffffffffffff1603610ba8576040517f08c379a0000000000000000000000000000000000000000000000000000000008152600401610b9f90611521565b60405180910390fd5b8060045f6101000a81548173ffffffffffffffffffffffffffffffffffffffff021916908373ffffffffffffffffffffffffffffffffffffffff16021790555050565b60045f9054906101000a900473ffffffffffffffffffffffffffffffffffffffff1681565b60025f9054906101000a900473ffffffffffffffffffffffffffffffffffffffff1681565b60035481565b5f80fd5b5f819050919050565b610c5181610c3f565b8114610c5b575f80fd5b50565b5f81359050610c6c81610c48565b92915050565b5f60208284031215610c8757610c86610c3b565b5b5f610c9484828501610c5e565b91505092915050565b5f819050919050565b610caf81610c9d565b82525050565b5f602082019050610cc85f830184610ca6565b92915050565b5f73ffffffffffffffffffffffffffffffffffffffff82169050919050565b5f610cf782610cce565b9050919050565b610d0781610ced565b8114610d11575f80fd5b50565b5f81359050610d2281610cfe565b92915050565b5f60208284031215610d3d57610d3c610c3b565b5b5f610d4a84828501610d14565b91505092915050565b610d5c81610c3f565b82525050565b5f602082019050610d755f830184610d53565b92915050565b610d8481610ced565b82525050565b5f602082019050610d9d5f830184610d7b565b92915050565b5f819050919050565b5f610dc6610dc1610dbc84610cce565b610da3565b610cce565b9050919050565b5f610dd782610dac565b9050919050565b5f610de882610dcd565b9050919050565b610df881610dde565b82525050565b5f602082019050610e115f830184610def565b92915050565b7f4e487b71000000000000000000000000000000000000000000000000000000005f52601160045260245ffd5b5f610e4e82610c9d565b91507fffffffffffffffffffffffffffffffffffffffffffffffffffffffffffffffff8203610e8057610e7f610e17565b5b600182019050919050565b5f610e9582610c9d565b91505f8203610ea757610ea6610e17565b5b600182039050919050565b7f4e487b71000000000000000000000000000000000000000000000000000000005f52601260045260245ffd5b5f610ee982610c9d565b9150610ef483610c9d565b925082610f0457610f03610eb2565b5b828204905092915050565b5f82825260208201905092915050565b7f4f6e6c79206f776e65722063616e2063616c6c20746869732066756e6374696f5f8201527f6e00000000000000000000000000000000000000000000000000000000000000602082015250565b5f610f79602183610f0f565b9150610f8482610f1f565b604082019050919050565b5f6020820190508181035f830152610fa681610f6d565b9050919050565b7f4e6f2076616c69642077696e6e657220666f756e6400000000000000000000005f82015250565b5f610fe1601583610f0f565b9150610fec82610fad565b602082019050919050565b5f6020820190508181035f83015261100e81610fd5565b9050919050565b5f61101f82610c9d565b915061102a83610c9d565b925082820190508082111561104257611041610e17565b5b92915050565b5f8160011c9050919050565b5f808291508390505b600185111561109d5780860481111561107957611078610e17565b5b60018516156110885780820291505b808102905061109685611048565b945061105d565b94509492505050565b5f826110b55760019050611170565b816110c2575f9050611170565b81600181146110d857600281146110e257611111565b6001915050611170565b60ff8411156110f4576110f3610e17565b5b8360020a91508482111561110b5761110a610e17565b5b50611170565b5060208310610133831016604e8410600b84101617156111465782820a90508381111561114157611140610e17565b5b611170565b6111538484846001611054565b9250905081840481111561116a57611169610e17565b5b81810290505b9392505050565b5f61118182610c9d565b915061118c83610c9d565b92506111b97fffffffffffffffffffffffffffffffffffffffffffffffffffffffffffffffff84846110a6565b905092915050565b6111ca81610c9d565b81146111d4575f80fd5b50565b5f815190506111e5816111c1565b92915050565b5f60208284031215611200576111ff610c3b565b5b5f61120d848285016111d7565b91505092915050565b5f6040820190506112295f830185610d7b565b6112366020830184610ca6565b9392505050565b5f8115159050919050565b6112518161123d565b811461125b575f80fd5b50565b5f8151905061126c81611248565b92915050565b5f6020828403121561128757611286610c3b565b5b5f6112948482850161125e565b91505092915050565b7f5850207472616e73666572206661696c656400000000000000000000000000005f82015250565b5f6112d1601283610f0f565b91506112dc8261129d565b602082019050919050565b5f6020820190508181035f8301526112fe816112c5565b9050919050565b5f6060820190506113185f830186610d7b565b6113256020830185610d53565b6113326040830184610ca6565b949350505050565b5f61134482610c9d565b915061134f83610c9d565b925082820261135d81610c9d565b9150828204841483151761137457611373610e17565b5b5092915050565b5f61138582610c9d565b915061139083610c9d565b92508282039050818111156113a8576113a7610e17565b5b92915050565b5f819050919050565b6113c86113c382610c9d565b6113ae565b82525050565b5f819050919050565b6113e86113e382610c3f565b6113ce565b82525050565b5f8160601b9050919050565b5f611404826113ee565b9050919050565b5f611415826113fa565b9050919050565b61142d61142882610ced565b61140b565b82525050565b5f61143e82866113b7565b60208201915061144e82856113d7565b60208201915061145e828461141c565b601482019150819050949350505050565b7f4e6f20585020746f6b656e7320746f20776974686472617700000000000000005f82015250565b5f6114a3601883610f0f565b91506114ae8261146f565b602082019050919050565b5f6020820190508181035f8301526114d081611497565b9050919050565b7f496e76616c696420746f6b656e206164647265737300000000000000000000005f82015250565b5f61150b601583610f0f565b9150611516826114d7565b602082019050919050565b5f6020820190508181035f830152611538816114ff565b905091905056fea2646970667358221220a074bd4ba34c1c18dabdc5a2c074054564bc5b4ba47c3b92bb95452b4d6f25db64736f6c634300081a0033",
					"opcodes": "PUSH1 0x80 PUSH1 0x40 MSTORE PUSH32 0xFFFFFFFFFFFFFFFFFFFFFFFFFFFFFFFFFFFFFFFFFFFFFFFFFFFFFFFFFFFFFFFF PUSH0 SHL PUSH1 0x3 SSTORE CALLVALUE DUP1 ISZERO PUSH2 0x35 JUMPI PUSH0 DUP1 REVERT JUMPDEST POP PUSH1 0x40 MLOAD PUSH2 0x16E7 CODESIZE SUB DUP1 PUSH2 0x16E7 DUP4 CODECOPY DUP2 DUP2 ADD PUSH1 0x40 MSTORE DUP2 ADD SWAP1 PUSH2 0x57 SWAP2 SWAP1 PUSH2 0x13A JUMP JUMPDEST CALLER PUSH0 DUP1 PUSH2 0x100 EXP DUP2 SLOAD DUP2 PUSH20 0xFFFFFFFFFFFFFFFFFFFFFFFFFFFFFFFFFFFFFFFF MUL NOT AND SWAP1 DUP4 PUSH20 0xFFFFFFFFFFFFFFFFFFFFFFFFFFFFFFFFFFFFFFFF AND MUL OR SWAP1 SSTORE POP DUP1 PUSH1 0x4 PUSH0 PUSH2 0x100 EXP DUP2 SLOAD DUP2 PUSH20 0xFFFFFFFFFFFFFFFFFFFFFFFFFFFFFFFFFFFFFFFF MUL NOT AND SWAP1 DUP4 PUSH20 0xFFFFFFFFFFFFFFFFFFFFFFFFFFFFFFFFFFFFFFFF AND MUL OR SWAP1 SSTORE POP POP PUSH2 0x165 JUMP JUMPDEST PUSH0 DUP1 REVERT JUMPDEST PUSH0 PUSH20 0xFFFFFFFFFFFFFFFFFFFFFFFFFFFFFFFFFFFFFFFF DUP3 AND SWAP1 POP SWAP2 SWAP1 POP JUMP JUMPDEST PUSH0 PUSH2 0x109 DUP3 PUSH2 0xE0 JUMP JUMPDEST SWAP1 POP SWAP2 SWAP1 POP JUMP JUMPDEST PUSH2 0x119 DUP2 PUSH2 0xFF JUMP JUMPDEST DUP2 EQ PUSH2 0x123 JUMPI PUSH0 DUP1 REVERT JUMPDEST POP JUMP JUMPDEST PUSH0 DUP2 MLOAD SWAP1 POP PUSH2 0x134 DUP2 PUSH2 0x110 JUMP JUMPDEST SWAP3 SWAP2 POP POP JUMP JUMPDEST PUSH0 PUSH1 0x20 DUP3 DUP5 SUB SLT ISZERO PUSH2 0x14F JUMPI PUSH2 0x14E PUSH2 0xDC JUMP JUMPDEST JUMPDEST PUSH0 PUSH2 0x15C DUP5 DUP3 DUP6 ADD PUSH2 0x126 JUMP JUMPDEST SWAP2 POP POP SWAP3 SWAP2 POP POP JUMP JUMPDEST PUSH2 0x1575 DUP1 PUSH2 0x172 PUSH0 CODECOPY PUSH0 RETURN INVALID PUSH1 0x80 PUSH1 0x40 MSTORE CALLVALUE DUP1 ISZERO PUSH2 0xF JUMPI PUSH0 DUP1 REVERT JUMPDEST POP PUSH1 0x4 CALLDATASIZE LT PUSH2 0x9B JUMPI PUSH0 CALLDATALOAD PUSH1 0xE0 SHR DUP1 PUSH4 0x8DA5CB5B GT PUSH2 0x64 JUMPI DUP1 PUSH4 0x8DA5CB5B EQ PUSH2 0x11D JUMPI DUP1 PUSH4 0x92D14EA0 EQ PUSH2 0x13B JUMPI DUP1 PUSH4 0xAE5014B1 EQ PUSH2 0x157 JUMPI DUP1 PUSH4 0xBBD425DF EQ PUSH2 0x175 JUMPI DUP1 PUSH4 0xF6B36551 EQ PUSH2 0x193 JUMPI PUSH2 0x9B JUMP JUMPDEST DUP1 PUSH3 0x49A556 EQ PUSH2 0x9F JUMPI DUP1 PUSH4 0x3FEB273 EQ PUSH2 0xCF JUMPI DUP1 PUSH4 0xFE5A9F7 EQ PUSH2 0xD9 JUMPI DUP1 PUSH4 0x1B7EF263 EQ PUSH2 0xE3 JUMPI DUP1 PUSH4 0x598378F5 EQ PUSH2 0x113 JUMPI JUMPDEST PUSH0 DUP1 REVERT JUMPDEST PUSH2 0xB9 PUSH1 0x4 DUP1 CALLDATASIZE SUB DUP2 ADD SWAP1 PUSH2 0xB4 SWAP2 SWAP1 PUSH2 0xC72 JUMP JUMPDEST PUSH2 0x1B1 JUMP JUMPDEST PUSH1 0x40 MLOAD PUSH2 0xC6 SWAP2 SWAP1 PUSH2 0xCB5 JUMP JUMPDEST PUSH1 0x40 MLOAD DUP1 SWAP2 SUB SWAP1 RETURN JUMPDEST PUSH2 0xD7 PUSH2 0x20B JUMP JUMPDEST STOP JUMPDEST PUSH2 0xE1 PUSH2 0x643 JUMP JUMPDEST STOP JUMPDEST PUSH2 0xFD PUSH1 0x4 DUP1 CALLDATASIZE SUB DUP2 ADD SWAP1 PUSH2 0xF8 SWAP2 SWAP1 PUSH2 0xD28 JUMP JUMPDEST PUSH2 0x80D JUMP JUMPDEST PUSH1 0x40 MLOAD PUSH2 0x10A SWAP2 SWAP1 PUSH2 0xD62 JUMP JUMPDEST PUSH1 0x40 MLOAD DUP1 SWAP2 SUB SWAP1 RETURN JUMPDEST PUSH2 0x11B PUSH2 0x822 JUMP JUMPDEST STOP JUMPDEST PUSH2 0x125 PUSH2 0xA8A JUMP JUMPDEST PUSH1 0x40 MLOAD PUSH2 0x132 SWAP2 SWAP1 PUSH2 0xD8A JUMP JUMPDEST PUSH1 0x40 MLOAD DUP1 SWAP2 SUB SWAP1 RETURN JUMPDEST PUSH2 0x155 PUSH1 0x4 DUP1 CALLDATASIZE SUB DUP2 ADD SWAP1 PUSH2 0x150 SWAP2 SWAP1 PUSH2 0xD28 JUMP JUMPDEST PUSH2 0xAAD JUMP JUMPDEST STOP JUMPDEST PUSH2 0x15F PUSH2 0xBEB JUMP JUMPDEST PUSH1 0x40 MLOAD PUSH2 0x16C SWAP2 SWAP1 PUSH2 0xDFE JUMP JUMPDEST PUSH1 0x40 MLOAD DUP1 SWAP2 SUB SWAP1 RETURN JUMPDEST PUSH2 0x17D PUSH2 0xC10 JUMP JUMPDEST PUSH1 0x40 MLOAD PUSH2 0x18A SWAP2 SWAP1 PUSH2 0xD8A JUMP JUMPDEST PUSH1 0x40 MLOAD DUP1 SWAP2 SUB SWAP1 RETURN JUMPDEST PUSH2 0x19B PUSH2 0xC35 JUMP JUMPDEST PUSH1 0x40 MLOAD PUSH2 0x1A8 SWAP2 SWAP1 PUSH2 0xD62 JUMP JUMPDEST PUSH1 0x40 MLOAD DUP1 SWAP2 SUB SWAP1 RETURN JUMPDEST PUSH0 DUP1 DUP3 PUSH0 SHR SWAP1 POP PUSH0 DUP1 PUSH1 0xFF SWAP1 POP JUMPDEST PUSH0 DUP2 LT PUSH2 0x1F4 JUMPI PUSH0 DUP2 PUSH1 0x1 SWAP1 SHL DUP5 AND SUB PUSH2 0x1F4 JUMPI DUP2 DUP1 PUSH2 0x1DE SWAP1 PUSH2 0xE44 JUMP JUMPDEST SWAP3 POP POP DUP1 DUP1 PUSH2 0x1EC SWAP1 PUSH2 0xE8B JUMP JUMPDEST SWAP2 POP POP PUSH2 0x1BF JUMP JUMPDEST POP PUSH1 0x4 DUP2 PUSH2 0x202 SWAP2 SWAP1 PUSH2 0xEDF JUMP JUMPDEST SWAP3 POP POP POP SWAP2 SWAP1 POP JUMP JUMPDEST PUSH0 DUP1 SLOAD SWAP1 PUSH2 0x100 EXP SWAP1 DIV PUSH20 0xFFFFFFFFFFFFFFFFFFFFFFFFFFFFFFFFFFFFFFFF AND PUSH20 0xFFFFFFFFFFFFFFFFFFFFFFFFFFFFFFFFFFFFFFFF AND CALLER PUSH20 0xFFFFFFFFFFFFFFFFFFFFFFFFFFFFFFFFFFFFFFFF AND EQ PUSH2 0x298 JUMPI PUSH1 0x40 MLOAD PUSH32 0x8C379A000000000000000000000000000000000000000000000000000000000 DUP2 MSTORE PUSH1 0x4 ADD PUSH2 0x28F SWAP1 PUSH2 0xF8F JUMP JUMPDEST PUSH1 0x40 MLOAD DUP1 SWAP2 SUB SWAP1 REVERT JUMPDEST PUSH0 PUSH20 0xFFFFFFFFFFFFFFFFFFFFFFFFFFFFFFFFFFFFFFFF AND PUSH1 0x2 PUSH0 SWAP1 SLOAD SWAP1 PUSH2 0x100 EXP SWAP1 DIV PUSH20 0xFFFFFFFFFFFFFFFFFFFFFFFFFFFFFFFFFFFFFFFF AND PUSH20 0xFFFFFFFFFFFFFFFFFFFFFFFFFFFFFFFFFFFFFFFF AND SUB PUSH2 0x327 JUMPI PUSH1 0x40 MLOAD PUSH32 0x8C379A000000000000000000000000000000000000000000000000000000000 DUP2 MSTORE PUSH1 0x4 ADD PUSH2 0x31E SWAP1 PUSH2 0xFF7 JUMP JUMPDEST PUSH1 0x40 MLOAD DUP1 SWAP2 SUB SWAP1 REVERT JUMPDEST PUSH0 PUSH1 0x2 PUSH0 SWAP1 SLOAD SWAP1 PUSH2 0x100 EXP SWAP1 DIV PUSH20 0xFFFFFFFFFFFFFFFFFFFFFFFFFFFFFFFFFFFFFFFF AND SWAP1 POP PUSH0 PUSH1 0x3 SLOAD SWAP1 POP PUSH0 PUSH2 0x35C DUP3 PUSH2 0x1B1 JUMP JUMPDEST SWAP1 POP PUSH0 PUSH1 0x12 DUP3 PUSH2 0x36C SWAP2 SWAP1 PUSH2 0x1015 JUMP JUMPDEST PUSH1 0xA PUSH2 0x378 SWAP2 SWAP1 PUSH2 0x1177 JUMP JUMPDEST SWAP1 POP PUSH0 PUSH1 0x4 PUSH0 SWAP1 SLOAD SWAP1 PUSH2 0x100 EXP SWAP1 DIV PUSH20 0xFFFFFFFFFFFFFFFFFFFFFFFFFFFFFFFFFFFFFFFF AND PUSH20 0xFFFFFFFFFFFFFFFFFFFFFFFFFFFFFFFFFFFFFFFF AND PUSH4 0x70A08231 ADDRESS PUSH1 0x40 MLOAD DUP3 PUSH4 0xFFFFFFFF AND PUSH1 0xE0 SHL DUP2 MSTORE PUSH1 0x4 ADD PUSH2 0x3D5 SWAP2 SWAP1 PUSH2 0xD8A JUMP JUMPDEST PUSH1 0x20 PUSH1 0x40 MLOAD DUP1 DUP4 SUB DUP2 DUP7 GAS STATICCALL ISZERO DUP1 ISZERO PUSH2 0x3F0 JUMPI RETURNDATASIZE PUSH0 DUP1 RETURNDATACOPY RETURNDATASIZE PUSH0 REVERT JUMPDEST POP POP POP POP PUSH1 0x40 MLOAD RETURNDATASIZE PUSH1 0x1F NOT PUSH1 0x1F DUP3 ADD AND DUP3 ADD DUP1 PUSH1 0x40 MSTORE POP DUP2 ADD SWAP1 PUSH2 0x414 SWAP2 SWAP1 PUSH2 0x11EB JUMP JUMPDEST SWAP1 POP DUP1 DUP3 GT PUSH2 0x423 JUMPI DUP2 PUSH2 0x425 JUMP JUMPDEST DUP1 JUMPDEST SWAP2 POP PUSH0 DUP3 GT DUP1 ISZERO PUSH2 0x436 JUMPI POP DUP2 DUP2 LT ISZERO JUMPDEST ISZERO PUSH2 0x517 JUMPI PUSH1 0x4 PUSH0 SWAP1 SLOAD SWAP1 PUSH2 0x100 EXP SWAP1 DIV PUSH20 0xFFFFFFFFFFFFFFFFFFFFFFFFFFFFFFFFFFFFFFFF AND PUSH20 0xFFFFFFFFFFFFFFFFFFFFFFFFFFFFFFFFFFFFFFFF AND PUSH4 0xA9059CBB DUP7 DUP5 PUSH1 0x40 MLOAD DUP4 PUSH4 0xFFFFFFFF AND PUSH1 0xE0 SHL DUP2 MSTORE PUSH1 0x4 ADD PUSH2 0x497 SWAP3 SWAP2 SWAP1 PUSH2 0x1216 JUMP JUMPDEST PUSH1 0x20 PUSH1 0x40 MLOAD DUP1 DUP4 SUB DUP2 PUSH0 DUP8 GAS CALL ISZERO DUP1 ISZERO PUSH2 0x4B3 JUMPI RETURNDATASIZE PUSH0 DUP1 RETURNDATACOPY RETURNDATASIZE PUSH0 REVERT JUMPDEST POP POP POP POP PUSH1 0x40 MLOAD RETURNDATASIZE PUSH1 0x1F NOT PUSH1 0x1F DUP3 ADD AND DUP3 ADD DUP1 PUSH1 0x40 MSTORE POP DUP2 ADD SWAP1 PUSH2 0x4D7 SWAP2 SWAP1 PUSH2 0x1272 JUMP JUMPDEST PUSH2 0x516 JUMPI PUSH1 0x40 MLOAD PUSH32 0x8C379A000000000000000000000000000000000000000000000000000000000 DUP2 MSTORE PUSH1 0x4 ADD PUSH2 0x50D SWAP1 PUSH2 0x12E7 JUMP JUMPDEST PUSH1 0x40 MLOAD DUP1 SWAP2 SUB SWAP1 REVERT JUMPDEST JUMPDEST PUSH32 0x7ADAF486FBA2A50D6D287E224BEF3941AA341EF4E72C70467A72A9F61E8D8606 DUP6 DUP6 DUP5 PUSH1 0x40 MLOAD PUSH2 0x54A SWAP4 SWAP3 SWAP2 SWAP1 PUSH2 0x1305 JUMP JUMPDEST PUSH1 0x40 MLOAD DUP1 SWAP2 SUB SWAP1 LOG1 PUSH32 0xFFFFFFFFFFFFFFFFFFFFFFFFFFFFFFFFFFFFFFFFFFFFFFFFFFFFFFFFFFFFFFFF PUSH0 SHL PUSH1 0x3 DUP2 SWAP1 SSTORE POP PUSH0 PUSH1 0x2 PUSH0 PUSH2 0x100 EXP DUP2 SLOAD DUP2 PUSH20 0xFFFFFFFFFFFFFFFFFFFFFFFFFFFFFFFFFFFFFFFF MUL NOT AND SWAP1 DUP4 PUSH20 0xFFFFFFFFFFFFFFFFFFFFFFFFFFFFFFFFFFFFFFFF AND MUL OR SWAP1 SSTORE POP PUSH0 JUMPDEST PUSH2 0x100 DUP2 LT ISZERO PUSH2 0x63B JUMPI PUSH0 PUSH1 0x8 DUP3 PUSH2 0x5D5 SWAP2 SWAP1 PUSH2 0x133A JUMP JUMPDEST PUSH1 0x1 NUMBER PUSH2 0x5E2 SWAP2 SWAP1 PUSH2 0x137B JUMP JUMPDEST BLOCKHASH PUSH0 SHR SWAP1 SHR SWAP1 POP PUSH0 DUP1 SHL PUSH1 0x1 PUSH0 DUP4 PUSH20 0xFFFFFFFFFFFFFFFFFFFFFFFFFFFFFFFFFFFFFFFF AND PUSH20 0xFFFFFFFFFFFFFFFFFFFFFFFFFFFFFFFFFFFFFFFF AND DUP2 MSTORE PUSH1 0x20 ADD SWAP1 DUP2 MSTORE PUSH1 0x20 ADD PUSH0 KECCAK256 DUP2 SWAP1 SSTORE POP POP DUP1 DUP1 PUSH1 0x1 ADD SWAP2 POP POP PUSH2 0x5BD JUMP JUMPDEST POP POP POP POP POP POP JUMP JUMPDEST PUSH0 CALLER PUSH20 0xFFFFFFFFFFFFFFFFFFFFFFFFFFFFFFFFFFFFFFFF AND SWAP1 POP PUSH0 DUP2 PUSH1 0x1 NUMBER PUSH2 0x66C SWAP2 SWAP1 PUSH2 0x137B JUMP JUMPDEST BLOCKHASH CALLER PUSH1 0x40 MLOAD PUSH1 0x20 ADD PUSH2 0x680 SWAP4 SWAP3 SWAP2 SWAP1 PUSH2 0x1433 JUMP JUMPDEST PUSH1 0x40 MLOAD PUSH1 0x20 DUP2 DUP4 SUB SUB DUP2 MSTORE SWAP1 PUSH1 0x40 MSTORE DUP1 MLOAD SWAP1 PUSH1 0x20 ADD KECCAK256 SWAP1 POP PUSH0 DUP1 SHL PUSH1 0x1 PUSH0 CALLER PUSH20 0xFFFFFFFFFFFFFFFFFFFFFFFFFFFFFFFFFFFFFFFF AND PUSH20 0xFFFFFFFFFFFFFFFFFFFFFFFFFFFFFFFFFFFFFFFF AND DUP2 MSTORE PUSH1 0x20 ADD SWAP1 DUP2 MSTORE PUSH1 0x20 ADD PUSH0 KECCAK256 SLOAD EQ DUP1 PUSH2 0x721 JUMPI POP PUSH1 0x1 PUSH0 CALLER PUSH20 0xFFFFFFFFFFFFFFFFFFFFFFFFFFFFFFFFFFFFFFFF AND PUSH20 0xFFFFFFFFFFFFFFFFFFFFFFFFFFFFFFFFFFFFFFFF AND DUP2 MSTORE PUSH1 0x20 ADD SWAP1 DUP2 MSTORE PUSH1 0x20 ADD PUSH0 KECCAK256 SLOAD DUP2 LT JUMPDEST ISZERO PUSH2 0x7B7 JUMPI DUP1 PUSH1 0x1 PUSH0 CALLER PUSH20 0xFFFFFFFFFFFFFFFFFFFFFFFFFFFFFFFFFFFFFFFF AND PUSH20 0xFFFFFFFFFFFFFFFFFFFFFFFFFFFFFFFFFFFFFFFF AND DUP2 MSTORE PUSH1 0x20 ADD SWAP1 DUP2 MSTORE PUSH1 0x20 ADD PUSH0 KECCAK256 DUP2 SWAP1 SSTORE POP CALLER PUSH20 0xFFFFFFFFFFFFFFFFFFFFFFFFFFFFFFFFFFFFFFFF AND PUSH32 0xE0580E65E31C995B4CD3D5C8A911E89D31EF328BE761A1CA2F35B795D00A152C DUP3 PUSH1 0x40 MLOAD PUSH2 0x7AE SWAP2 SWAP1 PUSH2 0xD62 JUMP JUMPDEST PUSH1 0x40 MLOAD DUP1 SWAP2 SUB SWAP1 LOG2 JUMPDEST PUSH1 0x3 SLOAD DUP2 LT ISZERO PUSH2 0x809 JUMPI DUP1 PUSH1 0x3 DUP2 SWAP1 SSTORE POP CALLER PUSH1 0x2 PUSH0 PUSH2 0x100 EXP DUP2 SLOAD DUP2 PUSH20 0xFFFFFFFFFFFFFFFFFFFFFFFFFFFFFFFFFFFFFFFF MUL NOT AND SWAP1 DUP4 PUSH20 0xFFFFFFFFFFFFFFFFFFFFFFFFFFFFFFFFFFFFFFFF AND MUL OR SWAP1 SSTORE POP JUMPDEST POP POP JUMP JUMPDEST PUSH1 0x1 PUSH1 0x20 MSTORE DUP1 PUSH0 MSTORE PUSH1 0x40 PUSH0 KECCAK256 PUSH0 SWAP2 POP SWAP1 POP SLOAD DUP2 JUMP JUMPDEST PUSH0 DUP1 SLOAD SWAP1 PUSH2 0x100 EXP SWAP1 DIV PUSH20 0xFFFFFFFFFFFFFFFFFFFFFFFFFFFFFFFFFFFFFFFF AND PUSH20 0xFFFFFFFFFFFFFFFFFFFFFFFFFFFFFFFFFFFFFFFF AND CALLER PUSH20 0xFFFFFFFFFFFFFFFFFFFFFFFFFFFFFFFFFFFFFFFF AND EQ PUSH2 0x8AF JUMPI PUSH1 0x40 MLOAD PUSH32 0x8C379A000000000000000000000000000000000000000000000000000000000 DUP2 MSTORE PUSH1 0x4 ADD PUSH2 0x8A6 SWAP1 PUSH2 0xF8F JUMP JUMPDEST PUSH1 0x40 MLOAD DUP1 SWAP2 SUB SWAP1 REVERT JUMPDEST PUSH0 PUSH1 0x4 PUSH0 SWAP1 SLOAD SWAP1 PUSH2 0x100 EXP SWAP1 DIV PUSH20 0xFFFFFFFFFFFFFFFFFFFFFFFFFFFFFFFFFFFFFFFF AND PUSH20 0xFFFFFFFFFFFFFFFFFFFFFFFFFFFFFFFFFFFFFFFF AND PUSH4 0x70A08231 ADDRESS PUSH1 0x40 MLOAD DUP3 PUSH4 0xFFFFFFFF AND PUSH1 0xE0 SHL DUP2 MSTORE PUSH1 0x4 ADD PUSH2 0x90A SWAP2 SWAP1 PUSH2 0xD8A JUMP JUMPDEST PUSH1 0x20 PUSH1 0x40 MLOAD DUP1 DUP4 SUB DUP2 DUP7 GAS STATICCALL ISZERO DUP1 ISZERO PUSH2 0x925 JUMPI RETURNDATASIZE PUSH0 DUP1 RETURNDATACOPY RETURNDATASIZE PUSH0 REVERT JUMPDEST POP POP POP POP PUSH1 0x40 MLOAD RETURNDATASIZE PUSH1 0x1F NOT PUSH1 0x1F DUP3 ADD AND DUP3 ADD DUP1 PUSH1 0x40 MSTORE POP DUP2 ADD SWAP1 PUSH2 0x949 SWAP2 SWAP1 PUSH2 0x11EB JUMP JUMPDEST SWAP1 POP PUSH0 DUP2 GT PUSH2 0x98D JUMPI PUSH1 0x40 MLOAD PUSH32 0x8C379A000000000000000000000000000000000000000000000000000000000 DUP2 MSTORE PUSH1 0x4 ADD PUSH2 0x984 SWAP1 PUSH2 0x14B9 JUMP JUMPDEST PUSH1 0x40 MLOAD DUP1 SWAP2 SUB SWAP1 REVERT JUMPDEST PUSH1 0x4 PUSH0 SWAP1 SLOAD SWAP1 PUSH2 0x100 EXP SWAP1 DIV PUSH20 0xFFFFFFFFFFFFFFFFFFFFFFFFFFFFFFFFFFFFFFFF AND PUSH20 0xFFFFFFFFFFFFFFFFFFFFFFFFFFFFFFFFFFFFFFFF AND PUSH4 0xA9059CBB PUSH0 DUP1 SLOAD SWAP1 PUSH2 0x100 EXP SWAP1 DIV PUSH20 0xFFFFFFFFFFFFFFFFFFFFFFFFFFFFFFFFFFFFFFFF AND DUP4 PUSH1 0x40 MLOAD DUP4 PUSH4 0xFFFFFFFF AND PUSH1 0xE0 SHL DUP2 MSTORE PUSH1 0x4 ADD PUSH2 0xA08 SWAP3 SWAP2 SWAP1 PUSH2 0x1216 JUMP JUMPDEST PUSH1 0x20 PUSH1 0x40 MLOAD DUP1 DUP4 SUB DUP2 PUSH0 DUP8 GAS CALL ISZERO DUP1 ISZERO PUSH2 0xA24 JUMPI RETURNDATASIZE PUSH0 DUP1 RETURNDATACOPY RETURNDATASIZE PUSH0 REVERT JUMPDEST POP POP POP POP PUSH1 0x40 MLOAD RETURNDATASIZE PUSH1 0x1F NOT PUSH1 0x1F DUP3 ADD AND DUP3 ADD DUP1 PUSH1 0x40 MSTORE POP DUP2 ADD SWAP1 PUSH2 0xA48 SWAP2 SWAP1 PUSH2 0x1272 JUMP JUMPDEST PUSH2 0xA87 JUMPI PUSH1 0x40 MLOAD PUSH32 0x8C379A000000000000000000000000000000000000000000000000000000000 DUP2 MSTORE PUSH1 0x4 ADD PUSH2 0xA7E SWAP1 PUSH2 0x12E7 JUMP JUMPDEST PUSH1 0x40 MLOAD DUP1 SWAP2 SUB SWAP1 REVERT JUMPDEST POP JUMP JUMPDEST PUSH0 DUP1 SLOAD SWAP1 PUSH2 0x100 EXP SWAP1 DIV PUSH20 0xFFFFFFFFFFFFFFFFFFFFFFFFFFFFFFFFFFFFFFFF AND DUP2 JUMP JUMPDEST PUSH0 DUP1 SLOAD SWAP1 PUSH2 0x100 EXP SWAP1 DIV PUSH20 0xFFFFFFFFFFFFFFFFFFFFFFFFFFFFFFFFFFFFFFFF AND PUSH20 0xFFFFFFFFFFFFFFFFFFFFFFFFFFFFFFFFFFFFFFFF AND CALLER PUSH20 0xFFFFFFFFFFFFFFFFFFFFFFFFFFFFFFFFFFFFFFFF AND EQ PUSH2 0xB3A JUMPI PUSH1 0x40 MLOAD PUSH32 0x8C379A000000000000000000000000000000000000000000000000000000000 DUP2 MSTORE PUSH1 0x4 ADD PUSH2 0xB31 SWAP1 PUSH2 0xF8F JUMP JUMPDEST PUSH1 0x40 MLOAD DUP1 SWAP2 SUB SWAP1 REVERT JUMPDEST PUSH0 PUSH20 0xFFFFFFFFFFFFFFFFFFFFFFFFFFFFFFFFFFFFFFFF AND DUP2 PUSH20 0xFFFFFFFFFFFFFFFFFFFFFFFFFFFFFFFFFFFFFFFF AND SUB PUSH2 0xBA8 JUMPI PUSH1 0x40 MLOAD PUSH32 0x8C379A000000000000000000000000000000000000000000000000000000000 DUP2 MSTORE PUSH1 0x4 ADD PUSH2 0xB9F SWAP1 PUSH2 0x1521 JUMP JUMPDEST PUSH1 0x40 MLOAD DUP1 SWAP2 SUB SWAP1 REVERT JUMPDEST DUP1 PUSH1 0x4 PUSH0 PUSH2 0x100 EXP DUP2 SLOAD DUP2 PUSH20 0xFFFFFFFFFFFFFFFFFFFFFFFFFFFFFFFFFFFFFFFF MUL NOT AND SWAP1 DUP4 PUSH20 0xFFFFFFFFFFFFFFFFFFFFFFFFFFFFFFFFFFFFFFFF AND MUL OR SWAP1 SSTORE POP POP JUMP JUMPDEST PUSH1 0x4 PUSH0 SWAP1 SLOAD SWAP1 PUSH2 0x100 EXP SWAP1 DIV PUSH20 0xFFFFFFFFFFFFFFFFFFFFFFFFFFFFFFFFFFFFFFFF AND DUP2 JUMP JUMPDEST PUSH1 0x2 PUSH0 SWAP1 SLOAD SWAP1 PUSH2 0x100 EXP SWAP1 DIV PUSH20 0xFFFFFFFFFFFFFFFFFFFFFFFFFFFFFFFFFFFFFFFF AND DUP2 JUMP JUMPDEST PUSH1 0x3 SLOAD DUP2 JUMP JUMPDEST PUSH0 DUP1 REVERT JUMPDEST PUSH0 DUP2 SWAP1 POP SWAP2 SWAP1 POP JUMP JUMPDEST PUSH2 0xC51 DUP2 PUSH2 0xC3F JUMP JUMPDEST DUP2 EQ PUSH2 0xC5B JUMPI PUSH0 DUP1 REVERT JUMPDEST POP JUMP JUMPDEST PUSH0 DUP2 CALLDATALOAD SWAP1 POP PUSH2 0xC6C DUP2 PUSH2 0xC48 JUMP JUMPDEST SWAP3 SWAP2 POP POP JUMP JUMPDEST PUSH0 PUSH1 0x20 DUP3 DUP5 SUB SLT ISZERO PUSH2 0xC87 JUMPI PUSH2 0xC86 PUSH2 0xC3B JUMP JUMPDEST JUMPDEST PUSH0 PUSH2 0xC94 DUP5 DUP3 DUP6 ADD PUSH2 0xC5E JUMP JUMPDEST SWAP2 POP POP SWAP3 SWAP2 POP POP JUMP JUMPDEST PUSH0 DUP2 SWAP1 POP SWAP2 SWAP1 POP JUMP JUMPDEST PUSH2 0xCAF DUP2 PUSH2 0xC9D JUMP JUMPDEST DUP3 MSTORE POP POP JUMP JUMPDEST PUSH0 PUSH1 0x20 DUP3 ADD SWAP1 POP PUSH2 0xCC8 PUSH0 DUP4 ADD DUP5 PUSH2 0xCA6 JUMP JUMPDEST SWAP3 SWAP2 POP POP JUMP JUMPDEST PUSH0 PUSH20 0xFFFFFFFFFFFFFFFFFFFFFFFFFFFFFFFFFFFFFFFF DUP3 AND SWAP1 POP SWAP2 SWAP1 POP JUMP JUMPDEST PUSH0 PUSH2 0xCF7 DUP3 PUSH2 0xCCE JUMP JUMPDEST SWAP1 POP SWAP2 SWAP1 POP JUMP JUMPDEST PUSH2 0xD07 DUP2 PUSH2 0xCED JUMP JUMPDEST DUP2 EQ PUSH2 0xD11 JUMPI PUSH0 DUP1 REVERT JUMPDEST POP JUMP JUMPDEST PUSH0 DUP2 CALLDATALOAD SWAP1 POP PUSH2 0xD22 DUP2 PUSH2 0xCFE JUMP JUMPDEST SWAP3 SWAP2 POP POP JUMP JUMPDEST PUSH0 PUSH1 0x20 DUP3 DUP5 SUB SLT ISZERO PUSH2 0xD3D JUMPI PUSH2 0xD3C PUSH2 0xC3B JUMP JUMPDEST JUMPDEST PUSH0 PUSH2 0xD4A DUP5 DUP3 DUP6 ADD PUSH2 0xD14 JUMP JUMPDEST SWAP2 POP POP SWAP3 SWAP2 POP POP JUMP JUMPDEST PUSH2 0xD5C DUP2 PUSH2 0xC3F JUMP JUMPDEST DUP3 MSTORE POP POP JUMP JUMPDEST PUSH0 PUSH1 0x20 DUP3 ADD SWAP1 POP PUSH2 0xD75 PUSH0 DUP4 ADD DUP5 PUSH2 0xD53 JUMP JUMPDEST SWAP3 SWAP2 POP POP JUMP JUMPDEST PUSH2 0xD84 DUP2 PUSH2 0xCED JUMP JUMPDEST DUP3 MSTORE POP POP JUMP JUMPDEST PUSH0 PUSH1 0x20 DUP3 ADD SWAP1 POP PUSH2 0xD9D PUSH0 DUP4 ADD DUP5 PUSH2 0xD7B JUMP JUMPDEST SWAP3 SWAP2 POP POP JUMP JUMPDEST PUSH0 DUP2 SWAP1 POP SWAP2 SWAP1 POP JUMP JUMPDEST PUSH0 PUSH2 0xDC6 PUSH2 0xDC1 PUSH2 0xDBC DUP5 PUSH2 0xCCE JUMP JUMPDEST PUSH2 0xDA3 JUMP JUMPDEST PUSH2 0xCCE JUMP JUMPDEST SWAP1 POP SWAP2 SWAP1 POP JUMP JUMPDEST PUSH0 PUSH2 0xDD7 DUP3 PUSH2 0xDAC JUMP JUMPDEST SWAP1 POP SWAP2 SWAP1 POP JUMP JUMPDEST PUSH0 PUSH2 0xDE8 DUP3 PUSH2 0xDCD JUMP JUMPDEST SWAP1 POP SWAP2 SWAP1 POP JUMP JUMPDEST PUSH2 0xDF8 DUP2 PUSH2 0xDDE JUMP JUMPDEST DUP3 MSTORE POP POP JUMP JUMPDEST PUSH0 PUSH1 0x20 DUP3 ADD SWAP1 POP PUSH2 0xE11 PUSH0 DUP4 ADD DUP5 PUSH2 0xDEF JUMP JUMPDEST SWAP3 SWAP2 POP POP JUMP JUMPDEST PUSH32 0x4E487B7100000000000000000000000000000000000000000000000000000000 PUSH0 MSTORE PUSH1 0x11 PUSH1 0x4 MSTORE PUSH1 0x24 PUSH0 REVERT JUMPDEST PUSH0 PUSH2 0xE4E DUP3 PUSH2 0xC9D JUMP JUMPDEST SWAP2 POP PUSH32 0xFFFFFFFFFFFFFFFFFFFFFFFFFFFFFFFFFFFFFFFFFFFFFFFFFFFFFFFFFFFFFFFF DUP3 SUB PUSH2 0xE80 JUMPI PUSH2 0xE7F PUSH2 0xE17 JUMP JUMPDEST JUMPDEST PUSH1 0x1 DUP3 ADD SWAP1 POP SWAP2 SWAP1 POP JUMP JUMPDEST PUSH0 PUSH2 0xE95 DUP3 PUSH2 0xC9D JUMP JUMPDEST SWAP2 POP PUSH0 DUP3 SUB PUSH2 0xEA7 JUMPI PUSH2 0xEA6 PUSH2 0xE17 JUMP JUMPDEST JUMPDEST PUSH1 0x1 DUP3 SUB SWAP1 POP SWAP2 SWAP1 POP JUMP JUMPDEST PUSH32 0x4E487B7100000000000000000000000000000000000000000000000000000000 PUSH0 MSTORE PUSH1 0x12 PUSH1 0x4 MSTORE PUSH1 0x24 PUSH0 REVERT JUMPDEST PUSH0 PUSH2 0xEE9 DUP3 PUSH2 0xC9D JUMP JUMPDEST SWAP2 POP PUSH2 0xEF4 DUP4 PUSH2 0xC9D JUMP JUMPDEST SWAP3 POP DUP3 PUSH2 0xF04 JUMPI PUSH2 0xF03 PUSH2 0xEB2 JUMP JUMPDEST JUMPDEST DUP3 DUP3 DIV SWAP1 POP SWAP3 SWAP2 POP POP JUMP JUMPDEST PUSH0 DUP3 DUP3 MSTORE PUSH1 0x20 DUP3 ADD SWAP1 POP SWAP3 SWAP2 POP POP JUMP JUMPDEST PUSH32 0x4F6E6C79206F776E65722063616E2063616C6C20746869732066756E6374696F PUSH0 DUP3 ADD MSTORE PUSH32 0x6E00000000000000000000000000000000000000000000000000000000000000 PUSH1 0x20 DUP3 ADD MSTORE POP JUMP JUMPDEST PUSH0 PUSH2 0xF79 PUSH1 0x21 DUP4 PUSH2 0xF0F JUMP JUMPDEST SWAP2 POP PUSH2 0xF84 DUP3 PUSH2 0xF1F JUMP JUMPDEST PUSH1 0x40 DUP3 ADD SWAP1 POP SWAP2 SWAP1 POP JUMP JUMPDEST PUSH0 PUSH1 0x20 DUP3 ADD SWAP1 POP DUP2 DUP2 SUB PUSH0 DUP4 ADD MSTORE PUSH2 0xFA6 DUP2 PUSH2 0xF6D JUMP JUMPDEST SWAP1 POP SWAP2 SWAP1 POP JUMP JUMPDEST PUSH32 0x4E6F2076616C69642077696E6E657220666F756E640000000000000000000000 PUSH0 DUP3 ADD MSTORE POP JUMP JUMPDEST PUSH0 PUSH2 0xFE1 PUSH1 0x15 DUP4 PUSH2 0xF0F JUMP JUMPDEST SWAP2 POP PUSH2 0xFEC DUP3 PUSH2 0xFAD JUMP JUMPDEST PUSH1 0x20 DUP3 ADD SWAP1 POP SWAP2 SWAP1 POP JUMP JUMPDEST PUSH0 PUSH1 0x20 DUP3 ADD SWAP1 POP DUP2 DUP2 SUB PUSH0 DUP4 ADD MSTORE PUSH2 0x100E DUP2 PUSH2 0xFD5 JUMP JUMPDEST SWAP1 POP SWAP2 SWAP1 POP JUMP JUMPDEST PUSH0 PUSH2 0x101F DUP3 PUSH2 0xC9D JUMP JUMPDEST SWAP2 POP PUSH2 0x102A DUP4 PUSH2 0xC9D JUMP JUMPDEST SWAP3 POP DUP3 DUP3 ADD SWAP1 POP DUP1 DUP3 GT ISZERO PUSH2 0x1042 JUMPI PUSH2 0x1041 PUSH2 0xE17 JUMP JUMPDEST JUMPDEST SWAP3 SWAP2 POP POP JUMP JUMPDEST PUSH0 DUP2 PUSH1 0x1 SHR SWAP1 POP SWAP2 SWAP1 POP JUMP JUMPDEST PUSH0 DUP1 DUP3 SWAP2 POP DUP4 SWAP1 POP JUMPDEST PUSH1 0x1 DUP6 GT ISZERO PUSH2 0x109D JUMPI DUP1 DUP7 DIV DUP2 GT ISZERO PUSH2 0x1079 JUMPI PUSH2 0x1078 PUSH2 0xE17 JUMP JUMPDEST JUMPDEST PUSH1 0x1 DUP6 AND ISZERO PUSH2 0x1088 JUMPI DUP1 DUP3 MUL SWAP2 POP JUMPDEST DUP1 DUP2 MUL SWAP1 POP PUSH2 0x1096 DUP6 PUSH2 0x1048 JUMP JUMPDEST SWAP5 POP PUSH2 0x105D JUMP JUMPDEST SWAP5 POP SWAP5 SWAP3 POP POP POP JUMP JUMPDEST PUSH0 DUP3 PUSH2 0x10B5 JUMPI PUSH1 0x1 SWAP1 POP PUSH2 0x1170 JUMP JUMPDEST DUP2 PUSH2 0x10C2 JUMPI PUSH0 SWAP1 POP PUSH2 0x1170 JUMP JUMPDEST DUP2 PUSH1 0x1 DUP2 EQ PUSH2 0x10D8 JUMPI PUSH1 0x2 DUP2 EQ PUSH2 0x10E2 JUMPI PUSH2 0x1111 JUMP JUMPDEST PUSH1 0x1 SWAP2 POP POP PUSH2 0x1170 JUMP JUMPDEST PUSH1 0xFF DUP5 GT ISZERO PUSH2 0x10F4 JUMPI PUSH2 0x10F3 PUSH2 0xE17 JUMP JUMPDEST JUMPDEST DUP4 PUSH1 0x2 EXP SWAP2 POP DUP5 DUP3 GT ISZERO PUSH2 0x110B JUMPI PUSH2 0x110A PUSH2 0xE17 JUMP JUMPDEST JUMPDEST POP PUSH2 0x1170 JUMP JUMPDEST POP PUSH1 0x20 DUP4 LT PUSH2 0x133 DUP4 LT AND PUSH1 0x4E DUP5 LT PUSH1 0xB DUP5 LT AND OR ISZERO PUSH2 0x1146 JUMPI DUP3 DUP3 EXP SWAP1 POP DUP4 DUP2 GT ISZERO PUSH2 0x1141 JUMPI PUSH2 0x1140 PUSH2 0xE17 JUMP JUMPDEST JUMPDEST PUSH2 0x1170 JUMP JUMPDEST PUSH2 0x1153 DUP5 DUP5 DUP5 PUSH1 0x1 PUSH2 0x1054 JUMP JUMPDEST SWAP3 POP SWAP1 POP DUP2 DUP5 DIV DUP2 GT ISZERO PUSH2 0x116A JUMPI PUSH2 0x1169 PUSH2 0xE17 JUMP JUMPDEST JUMPDEST DUP2 DUP2 MUL SWAP1 POP JUMPDEST SWAP4 SWAP3 POP POP POP JUMP JUMPDEST PUSH0 PUSH2 0x1181 DUP3 PUSH2 0xC9D JUMP JUMPDEST SWAP2 POP PUSH2 0x118C DUP4 PUSH2 0xC9D JUMP JUMPDEST SWAP3 POP PUSH2 0x11B9 PUSH32 0xFFFFFFFFFFFFFFFFFFFFFFFFFFFFFFFFFFFFFFFFFFFFFFFFFFFFFFFFFFFFFFFF DUP5 DUP5 PUSH2 0x10A6 JUMP JUMPDEST SWAP1 POP SWAP3 SWAP2 POP POP JUMP JUMPDEST PUSH2 0x11CA DUP2 PUSH2 0xC9D JUMP JUMPDEST DUP2 EQ PUSH2 0x11D4 JUMPI PUSH0 DUP1 REVERT JUMPDEST POP JUMP JUMPDEST PUSH0 DUP2 MLOAD SWAP1 POP PUSH2 0x11E5 DUP2 PUSH2 0x11C1 JUMP JUMPDEST SWAP3 SWAP2 POP POP JUMP JUMPDEST PUSH0 PUSH1 0x20 DUP3 DUP5 SUB SLT ISZERO PUSH2 0x1200 JUMPI PUSH2 0x11FF PUSH2 0xC3B JUMP JUMPDEST JUMPDEST PUSH0 PUSH2 0x120D DUP5 DUP3 DUP6 ADD PUSH2 0x11D7 JUMP JUMPDEST SWAP2 POP POP SWAP3 SWAP2 POP POP JUMP JUMPDEST PUSH0 PUSH1 0x40 DUP3 ADD SWAP1 POP PUSH2 0x1229 PUSH0 DUP4 ADD DUP6 PUSH2 0xD7B JUMP JUMPDEST PUSH2 0x1236 PUSH1 0x20 DUP4 ADD DUP5 PUSH2 0xCA6 JUMP JUMPDEST SWAP4 SWAP3 POP POP POP JUMP JUMPDEST PUSH0 DUP2 ISZERO ISZERO SWAP1 POP SWAP2 SWAP1 POP JUMP JUMPDEST PUSH2 0x1251 DUP2 PUSH2 0x123D JUMP JUMPDEST DUP2 EQ PUSH2 0x125B JUMPI PUSH0 DUP1 REVERT JUMPDEST POP JUMP JUMPDEST PUSH0 DUP2 MLOAD SWAP1 POP PUSH2 0x126C DUP2 PUSH2 0x1248 JUMP JUMPDEST SWAP3 SWAP2 POP POP JUMP JUMPDEST PUSH0 PUSH1 0x20 DUP3 DUP5 SUB SLT ISZERO PUSH2 0x1287 JUMPI PUSH2 0x1286 PUSH2 0xC3B JUMP JUMPDEST JUMPDEST PUSH0 PUSH2 0x1294 DUP5 DUP3 DUP6 ADD PUSH2 0x125E JUMP JUMPDEST SWAP2 POP POP SWAP3 SWAP2 POP POP JUMP JUMPDEST PUSH32 0x5850207472616E73666572206661696C65640000000000000000000000000000 PUSH0 DUP3 ADD MSTORE POP JUMP JUMPDEST PUSH0 PUSH2 0x12D1 PUSH1 0x12 DUP4 PUSH2 0xF0F JUMP JUMPDEST SWAP2 POP PUSH2 0x12DC DUP3 PUSH2 0x129D JUMP JUMPDEST PUSH1 0x20 DUP3 ADD SWAP1 POP SWAP2 SWAP1 POP JUMP JUMPDEST PUSH0 PUSH1 0x20 DUP3 ADD SWAP1 POP DUP2 DUP2 SUB PUSH0 DUP4 ADD MSTORE PUSH2 0x12FE DUP2 PUSH2 0x12C5 JUMP JUMPDEST SWAP1 POP SWAP2 SWAP1 POP JUMP JUMPDEST PUSH0 PUSH1 0x60 DUP3 ADD SWAP1 POP PUSH2 0x1318 PUSH0 DUP4 ADD DUP7 PUSH2 0xD7B JUMP JUMPDEST PUSH2 0x1325 PUSH1 0x20 DUP4 ADD DUP6 PUSH2 0xD53 JUMP JUMPDEST PUSH2 0x1332 PUSH1 0x40 DUP4 ADD DUP5 PUSH2 0xCA6 JUMP JUMPDEST SWAP5 SWAP4 POP POP POP POP JUMP JUMPDEST PUSH0 PUSH2 0x1344 DUP3 PUSH2 0xC9D JUMP JUMPDEST SWAP2 POP PUSH2 0x134F DUP4 PUSH2 0xC9D JUMP JUMPDEST SWAP3 POP DUP3 DUP3 MUL PUSH2 0x135D DUP2 PUSH2 0xC9D JUMP JUMPDEST SWAP2 POP DUP3 DUP3 DIV DUP5 EQ DUP4 ISZERO OR PUSH2 0x1374 JUMPI PUSH2 0x1373 PUSH2 0xE17 JUMP JUMPDEST JUMPDEST POP SWAP3 SWAP2 POP POP JUMP JUMPDEST PUSH0 PUSH2 0x1385 DUP3 PUSH2 0xC9D JUMP JUMPDEST SWAP2 POP PUSH2 0x1390 DUP4 PUSH2 0xC9D JUMP JUMPDEST SWAP3 POP DUP3 DUP3 SUB SWAP1 POP DUP2 DUP2 GT ISZERO PUSH2 0x13A8 JUMPI PUSH2 0x13A7 PUSH2 0xE17 JUMP JUMPDEST JUMPDEST SWAP3 SWAP2 POP POP JUMP JUMPDEST PUSH0 DUP2 SWAP1 POP SWAP2 SWAP1 POP JUMP JUMPDEST PUSH2 0x13C8 PUSH2 0x13C3 DUP3 PUSH2 0xC9D JUMP JUMPDEST PUSH2 0x13AE JUMP JUMPDEST DUP3 MSTORE POP POP JUMP JUMPDEST PUSH0 DUP2 SWAP1 POP SWAP2 SWAP1 POP JUMP JUMPDEST PUSH2 0x13E8 PUSH2 0x13E3 DUP3 PUSH2 0xC3F JUMP JUMPDEST PUSH2 0x13CE JUMP JUMPDEST DUP3 MSTORE POP POP JUMP JUMPDEST PUSH0 DUP2 PUSH1 0x60 SHL SWAP1 POP SWAP2 SWAP1 POP JUMP JUMPDEST PUSH0 PUSH2 0x1404 DUP3 PUSH2 0x13EE JUMP JUMPDEST SWAP1 POP SWAP2 SWAP1 POP JUMP JUMPDEST PUSH0 PUSH2 0x1415 DUP3 PUSH2 0x13FA JUMP JUMPDEST SWAP1 POP SWAP2 SWAP1 POP JUMP JUMPDEST PUSH2 0x142D PUSH2 0x1428 DUP3 PUSH2 0xCED JUMP JUMPDEST PUSH2 0x140B JUMP JUMPDEST DUP3 MSTORE POP POP JUMP JUMPDEST PUSH0 PUSH2 0x143E DUP3 DUP7 PUSH2 0x13B7 JUMP JUMPDEST PUSH1 0x20 DUP3 ADD SWAP2 POP PUSH2 0x144E DUP3 DUP6 PUSH2 0x13D7 JUMP JUMPDEST PUSH1 0x20 DUP3 ADD SWAP2 POP PUSH2 0x145E DUP3 DUP5 PUSH2 0x141C JUMP JUMPDEST PUSH1 0x14 DUP3 ADD SWAP2 POP DUP2 SWAP1 POP SWAP5 SWAP4 POP POP POP POP JUMP JUMPDEST PUSH32 0x4E6F20585020746F6B656E7320746F2077697468647261770000000000000000 PUSH0 DUP3 ADD MSTORE POP JUMP JUMPDEST PUSH0 PUSH2 0x14A3 PUSH1 0x18 DUP4 PUSH2 0xF0F JUMP JUMPDEST SWAP2 POP PUSH2 0x14AE DUP3 PUSH2 0x146F JUMP JUMPDEST PUSH1 0x20 DUP3 ADD SWAP1 POP SWAP2 SWAP1 POP JUMP JUMPDEST PUSH0 PUSH1 0x20 DUP3 ADD SWAP1 POP DUP2 DUP2 SUB PUSH0 DUP4 ADD MSTORE PUSH2 0x14D0 DUP2 PUSH2 0x1497 JUMP JUMPDEST SWAP1 POP SWAP2 SWAP1 POP JUMP JUMPDEST PUSH32 0x496E76616C696420746F6B656E20616464726573730000000000000000000000 PUSH0 DUP3 ADD MSTORE POP JUMP JUMPDEST PUSH0 PUSH2 0x150B PUSH1 0x15 DUP4 PUSH2 0xF0F JUMP JUMPDEST SWAP2 POP PUSH2 0x1516 DUP3 PUSH2 0x14D7 JUMP JUMPDEST PUSH1 0x20 DUP3 ADD SWAP1 POP SWAP2 SWAP1 POP JUMP JUMPDEST PUSH0 PUSH1 0x20 DUP3 ADD SWAP1 POP DUP2 DUP2 SUB PUSH0 DUP4 ADD MSTORE PUSH2 0x1538 DUP2 PUSH2 0x14FF JUMP JUMPDEST SWAP1 POP SWAP2 SWAP1 POP JUMP INVALID LOG2 PUSH5 0x6970667358 0x22 SLT KECCAK256 LOG0 PUSH21 0xBD4BA34C1C18DABDC5A2C074054564BC5B4BA47C3B SWAP3 0xBB SWAP6 GASLIMIT 0x2B 0x4D PUSH16 0x25DB64736F6C634300081A0033000000 "
				},
				"gasEstimates": {
					"creation": {
						"codeDepositCost": "1098600",
						"executionCost": "infinite",
						"totalCost": "infinite"
					},
					"external": {
						"bestHash()": "2513",
						"bestHashes(address)": "2869",
						"bestUser()": "2574",
						"countLeadingZeros(bytes32)": "infinite",
						"emergencyWithdrawXP()": "infinite",
						"feed_mammoth()": "infinite",
						"finish_round()": "infinite",
						"owner()": "2505",
						"setXPToken(address)": "26937",
						"xpToken()": "infinite"
					}
				},
				"methodIdentifiers": {
					"bestHash()": "f6b36551",
					"bestHashes(address)": "1b7ef263",
					"bestUser()": "bbd425df",
					"countLeadingZeros(bytes32)": "0049a556",
					"emergencyWithdrawXP()": "598378f5",
					"feed_mammoth()": "0fe5a9f7",
					"finish_round()": "03feb273",
					"owner()": "8da5cb5b",
					"setXPToken(address)": "92d14ea0",
					"xpToken()": "ae5014b1"
				}
			},
			"storageLayout": {
				"storage": [
					{
						"astId": 20,
						"contract": "gas_consumer.sol:BestHashGame",
						"label": "owner",
						"offset": 0,
						"slot": "0",
						"type": "t_address"
					},
					{
						"astId": 24,
						"contract": "gas_consumer.sol:BestHashGame",
						"label": "bestHashes",
						"offset": 0,
						"slot": "1",
						"type": "t_mapping(t_address,t_bytes32)"
					},
					{
						"astId": 26,
						"contract": "gas_consumer.sol:BestHashGame",
						"label": "bestUser",
						"offset": 0,
						"slot": "2",
						"type": "t_address"
					},
					{
						"astId": 36,
						"contract": "gas_consumer.sol:BestHashGame",
						"label": "bestHash",
						"offset": 0,
						"slot": "3",
						"type": "t_bytes32"
					},
					{
						"astId": 39,
						"contract": "gas_consumer.sol:BestHashGame",
						"label": "xpToken",
						"offset": 0,
						"slot": "4",
						"type": "t_contract(IERC20)18"
					}
				],
				"types": {
					"t_address": {
						"encoding": "inplace",
						"label": "address",
						"numberOfBytes": "20"
					},
					"t_bytes32": {
						"encoding": "inplace",
						"label": "bytes32",
						"numberOfBytes": "32"
					},
					"t_contract(IERC20)18": {
						"encoding": "inplace",
						"label": "contract IERC20",
						"numberOfBytes": "20"
					},
					"t_mapping(t_address,t_bytes32)": {
						"encoding": "mapping",
						"key": "t_address",
						"label": "mapping(address => bytes32)",
						"numberOfBytes": "32",
						"value": "t_bytes32"
					}
				}
			},
			"userdoc": {
				"kind": "user",
				"methods": {},
				"version": 1
			}
		}
	}
}